:020000040800F2
:1000000090060020010900088D0800088F080008EC
:1000100091080008930800089508000800000000F7
:100020000000000000000000000000009708000829
:1000300099080008000000009B0800089D080008BF
:100040001B0900081B0900081B0900081B09000800
:100050001B0900081B0900081B0900081B090008F0
:100060001B0900081B0900081B0900081B090008E0
:100070001B0900081B0900081B0900081B090008D0
:100080001B0900081B0900081B0900081B090008C0
:100090001B0900081B0900081B0900081B090008B0
:1000A0001B0900081B0900081B0900081B090008A0
:1000B0001B0900081B0900081B0900081B09000890
:1000C0001B0900081B0900081B0900081B09000880
:1000D0001B0900089F080008010700081B09000809
:1000E0001B0900081B0900081B0900081B09000860
:1000F0001B0900081B0900081B0900081B09000850
:100100001B0900081B0900081B0900081B0900083F
:100110001B0900081B0900081B0900081B0900082F
:100120001B0900081B0900081B0900081B0900081F
:100130001B0900081B0900081B0900081B0900080F
:100140001B0900081B0900081B0900081B090008FF
:100150001B0900081B0900081B0900081B090008EF
:100160001B0900081B0900081B0900081B090008DF
:100170001B0900081B0900081B0900081B090008CF
:100180001B0900081B09000800F002F800F041F804
:100190000AA090E8000C82448344AAF10107DA45E2
:1001A00001D100F036F8AFF2090EBAE80F0013F0F3
:1001B000010F18BFFB1A43F0010318476C1700002A
:1001C0008C170000103A24BF78C878C1FAD85207BB
:1001D00024BF30C830C144BF04680C6070470000C1
:1001E0000023002400250026103A28BF78C1FBD840
:1001F000520728BF30C148BF0B607047632901F028
:100200002383002070471FB501F088FB1FBD10B588
:1002100010BD01F053FB1146FFF7F5FF00F03FFA68
:1002200001F071FB03B4FFF7F2FF03BC00F019FB10
:10023000F0B5012187B0084600F0F3FD0121080365
:1002400000F017FEF84F05221146384600F0A3FCD7
:1002500005220621384600F09EFC0522072138467B
:1002600000F099FC05220421384600F094FC022499
:100270008DF80440012620208DF8056000250090AF
:100280008DF806508DF807406946384600F012FC9C
:10029000402000906946384600F00CFC8020009019
:1002A0006946384600F006FC102000906946384642
:1002B00000F000FCDD4F384601F01EF8A002ADF85A
:1002C0000C00ADF808504FF48270ADF80A00ADF89C
:1002D00010602002ADF812003020ADF814000720A5
:1002E000ADF81800ADF80E40ADF8165002A938462A
:1002F00001F026F80121384601F0AEF807B0F0BD54
:1003000070B5CA4D04460221284601F03AF900288A
:10031000F9D021462C46284601F006F90121204655
:1003200001F02FF90028F9D02046BDE8704001F017
:10033000F9B810B5BD4C0221204601F022F9002881
:10034000F9D00021204601F0EFF80121204601F00C
:1003500018F90028F9D02046BDE8104001F0E2B8B5
:100360002DE9F04188B00121062000F05AFD01215D
:10037000880300F07EFDAE4F05220A21384600F0CA
:100380000AFCDFF8B08205220221404600F003FC9F
:1003900005220321404600F0FEFB05220C213846D1
:1003A00000F0F9FB02248DF80440012638158DF881
:1003B0000560002500908DF806508DF807406946CD
:1003C000384600F077FB042000906946404600F074
:1003D00071FB082000906946404600F06BFBE0028C
:1003E00000906946384600F065FB934F384600F0B0
:1003F00083FFA002ADF80C00ADF808504FF48270F6
:10040000ADF80A00ADF810602002ADF812003020FF
:10041000ADF814000720ADF81800ADF80E40ADF8A7
:10042000165002A9384600F08BFF0121384601F032
:1004300013F808B0BDE8F08170B57F4D0446022185
:10044000284601F09EF80028F9D021462C4628467F
:1004500001F06AF80121204601F093F80028F9D054
:100460002046BDE8704001F05DB810B5724C022125
:10047000204601F086F80028F9D00021204601F03E
:1004800053F80121204601F07CF80028F9D02046DD
:10049000BDE8104001F046B80100A0F10100FBD119
:1004A000704700214FF6FF720020401C80B290423E
:1004B000FBD30020401C80B29042FBD30020401CA4
:1004C00080B29042FBD30020401C80B29042FBD30C
:1004D0000020401C80B29042FBD30020401C80B220
:1004E0009042FBD30020401C80B29042FBD30020FE
:1004F000401C80B29042FBD30020401C80B290424E
:10050000FBD30020401C80B29042FBD30020401C53
:1005100080B29042FBD30020401C80B29042FBD3BB
:100520000020401C80B29042FBD30020401C80B2CF
:100530009042FBD30020401C80B29042FBD30020AD
:10054000401C80B29042FBD30020401C80B29042FD
:10055000FBD30020401C80B29042FBD30020401C03
:1005600080B29042FBD30020401C80B29042FBD36B
:100570000020401C80B29042FBD30020401C80B27F
:100580009042FBD30020401C80B29042FBD300205D
:10059000401C80B29042FBD30020401C80B29042AD
:1005A000FBD30020401C80B29042FBD30020401CB3
:1005B00080B29042FBD30020401C80B29042FBD31B
:1005C0000020401C80B29042FBD30020401C80B22F
:1005D0009042FBD30020401C80B29042FBD300200D
:1005E000401C80B29042FBD30020401C80B290425D
:1005F000FBD30020401C80B29042FBD30020401C63
:1006000080B29042FBD30020401C80B29042FBD3CA
:100610000020401C80B29042FBD3491C89B22029A3
:10062000FFF442AF7047000000000240003001407C
:1006300000040240000802400038004010B50446A3
:10064000000CFFF75DFEA0B2BDE8104058E62E4951
:100650002C480860F2E710B52B4C2C482060FFF7BF
:10066000EDFF64210800A1F10101FBD128482060C1
:10067000FFF7E4FF27482060FFF7E0FF26482060EF
:10068000FFF7DCFF25482060FFF7D8FF24482060F3
:10069000FFF7D4FF23482060BDE81040CEE71CB52B
:1006A0000121082000F0BDFB4FF4704000900120B4
:1006B0008DF8040000218DF8061003218DF8051037
:1006C0008DF807006946184800F0F4F900F030F89A
:1006D00000F073F8012240F22551144800F0B8FDF3
:1006E000FFF7A6FDFFF73CFE45F25504FFF7B3FF09
:1006F000FFF7ADFFFFF7D5FE2046FFF79DFEF5E7BC
:1007000090E7000090E3397100000020C601D82D69
:1007100080BE397911900200527E09CD53126F00CC
:100720005402000135264772000C0240004400408C
:1007300030B5012187B0480400F091FB0121084643
:1007400000F06FFB02208DF804008DF805000024F6
:100750008DF8064001208DF807000420494D0090D7
:100760006946284600F0A6F9082100916946284606
:1007700000F0A0F907220221284600F00CFA072217
:100780000321284600F007FA4FF41640ADF80C405C
:100790000290ADF80E40ADF81040ADF814400C20BA
:1007A000394CADF8120002A9204600F03CFC0121B2
:1007B000204600F0AEFC07B030BD08B526208DF80D
:1007C000000000208DF801008DF8020001208DF856
:1007D0000300684600F0B9F808BD30B5012187B0C4
:1007E000480400F03CFB0121084600F01AFB0220FF
:1007F0008DF804008DF8050000248DF806400120D6
:100800008DF8070004201F4D00906946284600F02F
:1008100051F9082100916946284600F04BF907225A
:100820000221284600F0B7F907220321284600F0EC
:10083000B2F94FF41650ADF80C400290ADF80E40EE
:10084000ADF81040ADF814400C200F4CADF812007C
:1008500002A9204600F0E7FB0121204600F059FCE8
:10086000A9E7704770B5084D0446C1B2284600F0AC
:1008700076FC4021284600F003FD0028F9D02046F0
:1008800070BD000000000240004400407047FEE7D9
:10089000FEE7FEE7FEE7704770477047704710B508
:1008A000084C40F22551204600F0F4FC002808D006
:1008B000204600F058FC0146BDE8104002A000F0C0
:1008C0004BBF10BD004400400A0D55534152542007
:1008D00048797065727465726D696E616C20496EDD
:1008E000746572727570747320526563656976659C
:1008F000206120776F72643A2025630A0D000000A2
:100900000948804709480047FEE7FEE7FEE7FEE7A3
:10091000FEE7FEE7FEE7FEE7FEE7FEE704480549DF
:10092000054A064B70470000E915000889010008D8
:1009300090000020900600209002002090020020ED
:100940002849084328490860704770B50F23C278CA
:10095000017801244FF0E025EAB1234A1268867835
:1009600002F4E062C2F5E062C2F30722D340C2F1B2
:10097000040C42781E4002FA0CF21C4B1643320162
:10098000CA54007800F01F018C40400905EB80003C
:10099000C0F8004170BD01F01F008440480905EB1C
:1009A0008000C0F8804170BD114A114001430E48DB
:1009B000001F016070470C4A121D0029116801D008
:1009C000014300E08143116070474FF0E0210428AB
:1009D000086903D020F004000861704740F004006B
:1009E000FAE700000000FA050CED00E000E400E08A
:1009F00080FFFF1F704910B5884206D101210846CB
:100A000000F041FA002101204FE06C49884206D1F4
:100A10000121022000F037FA0021022045E0684958
:100A2000884206D10121042000F02DFA0021042083
:100A30003BE06449884206D10121082000F023FAF6
:100A40000021082031E06049884206D101211020B0
:100A500000F019FA0021102027E05C49884206D1F5
:100A60000121202000F00FFA002120201DE058492C
:100A7000884206D10121402000F005FA00214020E3
:100A800013E05449884206D10121802000F0FBF98F
:100A90000021802009E0504988420AD184150121B3
:100AA000204600F0F0F900212046BDE8104000F09B
:100AB000EAB910BDF0B5002201264FF0030C0C6816
:100AC00006FA02F31C409C422DD1056853000CFA33
:100AD00003F4A54305600D7907689D403D4305601B
:100AE0000D79012D01D0022D12D18568A5438560B5
:100AF0004C7985689C402C438460446806FA02F572
:100B0000AC43446044688D799540ADB22C43446059
:100B1000C46855000CFA05F7BC43C460CC799C400E
:100B2000C3681C43C460521C102AC8D3F0BD4FF6E2
:100B3000FF7101600021017141718171C1717047C4
:100B400041F48032C261C161C261C169C06970474C
:100B50000246002012690A4200D001207047006955
:100B600080B270470246002052690A4200D001203C
:100B70007047406980B27047018370474183704776
:100B80000AB10183704741837047416170474269F0
:100B90004A40426170474B07DB0E9A40C90810B5C6
:100BA00000EB8100016A0F249C40A1430162016AAD
:100BB0001143016210BD0000000002400004024029
:100BC00000080240000C02400010024000140240E5
:100BD00000180240001C024000200240EB4801685F
:100BE00041F001010160E94A002108321160026808
:100BF000E74B1A400260031DE64A1A60026822F4BD
:100C000080220260E1480C3001607047DF49002219
:100C1000891C0A700870704702460020510901299A
:100C20000CD002290CD0D9497431096802F01F0296
:100C3000012393400B4200D001207047D349F4E7D1
:100C4000D2497031F1E710B54FF0000C4FF4A064B9
:100C50003120FFF7E1FF0CF1010CA44501D0002881
:100C6000F6D03120FFF7D8FF002800D0012010BDBA
:100C7000C64A116821F0F80141EAC00010607047CF
:100C8000C54908607047C149002270310A700A7076
:100C9000012802D0042801D1052008707047BF49FF
:100CA0000860704741EA82115A08BD4BDDF800C068
:100CB00003EB02421143014341EA0C60B349091DB1
:100CC00008607047B44908667047800140EA0170C7
:100CD000AE49843108607047AF4988667047AE49B5
:100CE000C8647047A94B08331A68084322F0EC62C5
:100CF000104318607047A54B08331A68084322F068
:100D00007842104318607047A04A0832116821F0F9
:100D100003010143116070479C480830006800F0EF
:100D20000C007047994A0832116821F0F001014324
:100D300011607047954A0832116821F4E05101436F
:100D400011607047914A0832116821F4604141EA0C
:100D5000C000106070478D4B30B508331968914C56
:100D600011F00C0104D06510042903D0082903D028
:100D700004601DE005601BE0844A121D1168C1F388
:100D8000805C1168BCF1000F01F03F0102D0B5FB9F
:100D9000F1F101E0B4FBF1F114681268C4F38814B6
:100DA0006143C2F30142521C5200B1FBF2F10160F7
:100DB00019687D4A01F0F0010909545C0168E140BD
:100DC00041601C6804F4E054A40A145D21FA04F4A0
:100DD00084601B6803F460435B0BD25CD140C1604C
:100DE00030BDC0F30121032908D1684B08331968CD
:100DF0006E4A21F4F81102400A431A6063497031C7
:100E00000A68C0F30B0002430A6070476349443923
:100E1000086070476149403908607047644908605C
:100E200070475A4A30320029116801D0014300E06E
:100E3000814311607047554A34320029116801D04E
:100E4000014300E0814311607047504A3832002965
:100E5000116801D0014300E08143116070474B4AA3
:100E600040320029116801D0014300E08143116044
:100E70007047464A44320029116801D0014300E01E
:100E8000814311607047414A10320029116801D036
:100E9000014300E08143116070473C4A143200294D
:100EA000116801D0014300E0814311607047374A67
:100EB00018320029116801D0014300E0814311601C
:100EC0007047324A20320029116801D0014300E006
:100ED0008143116070472D4A24320029116801D0E6
:100EE000014300E0814311607047284A50320029D5
:100EF000116801D0014300E0814311607047234A2B
:100F000054320029116801D0014300E0814311608F
:100F100070471E4A58320029116801D0014300E091
:100F2000814311607047194A60320029116801D06D
:100F3000014300E0814311607047144A6432002984
:100F4000116801D0014300E08143116070470F4AEE
:100F50000D320029117801D0014300E08143117066
:100F600070470A487430016841F080710160704731
:100F70000146064A00200C3212680A4200D00120C5
:100F8000704702490E310870704700000038024077
:100F9000FFFFF6FE1030002400004742800E47425B
:100FA0000000FFFF0024F40008000020FFFCFF0FFA
:100FB0005C014742CA4910B5884206D10121102080
:100FC000FFF789FF0021102028E0C649884202D19E
:100FD00001214C0410E0C449884202D101218C0453
:100FE0000AE0C249884202D10121CC0404E0C04990
:100FF00088420AD101210C052046FFF762FF2046F6
:10100000BDE810400021FFF75CBFBA49884209D112
:1010100001212020FFF75FFF00212020BDE81040C4
:10102000FFF759BF10BD7FB50446008A0D4620F476
:101030004051E88808432082A18941F20C60814335
:10104000A8882A8910436A890A431043A081A08A8C
:1010500020F44071A8890843A0826846FFF77BFE10
:101060009F48844202D0A348844201D1039800E003
:101070000298A1890904002900EBC00101EB0010CE
:10108000296802DA4FEA410101E04FEA8101B0FB31
:10109000F1F06422B0FBF2F14FEA01114FEA1113B3
:1010A0006FF018056B4300EB8300A3891D044FF01C
:1010B000320306D503EBC000B0FBF2F000F00700EE
:1010C00005E003EB0010B0FBF2F000F00F00084366
:1010D00020817FBD4FF41651016000218180C180C5
:1010E00001810C2242818181704710B5028A4C88AF
:1010F00022F470630A8822438C88C9880C432243F7
:101100001A43028210BD0021018041808180C1808C
:1011100070470029818902D041F4005101E021F497
:10112000005181817047028B02F47F420283028B5F
:101130000A43028370470029818902D041F40041AB
:1011400001E0C1F30E01818170470029818A02D03C
:1011500041F4006101E021F4006181827047C1F334
:101160000801818070478088C0F308007047028AB8
:1011700022F00F020282028A0A430282704700298B
:10118000818902D041F0020101E021F00201818158
:101190007047828922F40062828182890A438281B7
:1011A0007047028A22F020020282028A0A430282E7
:1011B00070470029018A02D041F4804101E021F406
:1011C000804101827047818941F00101818170472E
:1011D0000029818A02D041F0080101E021F00801D4
:1011E00081827047028BD2B20283028B42EA0121D4
:1011F000018370470029818A02D041F0200101E07B
:1012000021F02001818270470029818A02D041F0BB
:10121000100101E021F0100181827047828A22F0E2
:1012200004028282828A0A43828270470029818A6C
:1012300002D041F0020101E021F0020181827047F9
:10124000002A828A01D00A4300E08A4382827047E2
:10125000C1F3421301F01F0C012101FA0CF1012B23
:1012600007D0022B07D01430002A026805D00A43A9
:1012700004E00C30F8E71030F6E78A43026070476C
:101280000246002012880A4200D001207047C9435C
:101290000180704730B501F01F0C01250024C1F317
:1012A000421305FA0CF2012B0FD0022B0FD0838AC8
:1012B0004FEA11210088134205FA01F500EA050002
:1012C00001D000B10124204630BD8389F0E7038AB4
:1012D000EEE70A0A01219140C943018070470000EE
:1012E000001001400044004000480040004C004015
:1012F0000050004000140140B64910B588420AD1A0
:10130000841401212046FFF7E6FD2046BDE8104089
:101310000021FFF7E0BDB049884202D10121041449
:1013200004E0AE4988420AD10121C4132046FFF7E8
:10133000C8FD2046BDE810400021FFF7C2BD10BD2A
:1013400030B502884C8802F441530A88CD88224384
:101350008C882C4322430C8922434C8922438C895C
:101360002243CC8922431A430280828B22F40062FA
:101370008283098A018230BD70B502220023858BE9
:1013800001244FF24006354085830284858B8E68A8
:10139000022E35D08A8802B10224914A13681B02BA
:1013A00003D5136823F4000313608D4A7C3213685D
:1013B0001268C3F38813C2F3027C894A121F1268B1
:1013C000884E02F03F02B6FBF2F25A43B2FBFCF247
:1013D000CB88B3F5007F28D06301B2FBF3F202EBB8
:1013E00082028B685200B2FBF3F2521D92B20A23C2
:1013F000B2FBF3F202F00103D21AC2F34F021B0256
:10140000941EFE2C01D302220023CC881A431443DD
:1014100004840A884B881A438B8889890B431A43B2
:101420002A4342F40061818370BD120AD7E700218C
:10143000018041808180C180018141818181C181A0
:101440000721018270470021018041808180C18095
:1014500002228260818170470029018802D041F018
:10146000400101E021F04001018070470029818B9B
:1014700002D041F4806101E021F4806181837047F2
:10148000028822F40062028002880A4302807047C8
:10149000B1F5804F018803D021F48041018070476D
:1014A00041F48041FAE7A1F57E420188FF3A02D07B
:1014B00041F4807101E021F48071018070470029BE
:1014C000818802D041F0040101E021F00401818013
:1014D00070470029818802D041F0100101E021F01D
:1014E00010018180704710B5828B00234FF24004B9
:1014F0002240828302220284B0F81CC00A884FF482
:101500008074B2F5007F00D002B923464A888C88E7
:101510008989224319430A4342EA0C0242F40061DA
:10152000818310BD808970478181704700290188BF
:1015300002D041F4005101E021F4005101807047D4
:10154000018841F4805101807047012901D0008B4E
:101550007047808A7047008A7047002A828801D0CD
:101560000A4300E08A4382807047090901238B40C7
:10157000002A828899B201D00A4300E08A4382801F
:1015800070470246002012890A4200D001207047AD
:10159000C9430181704710B501F00F03012404FA1B
:1015A00003F30246002009098C4091889BB21FFA80
:1015B00084FC128901EA0C011A4202D0002900D0F1
:1015C000012010BD01F00F0201219140C9430181AA
:1015D000704700000030014000380040003C0040EF
:1015E0000838024000127A00514810B5016841F4F1
:1015F000700101604F48016841F0010101604D4AEE
:1016000000210832116002684B4B1A400260031D32
:101610004A4A1A60026822F48022026045480C306F
:10162000016000F03EF842494FF0006080390860E8
:1016300010BD30B53F4C08342068414B414910F093
:101640000C0004D05D10042803D0082803D00B60E0
:101650001DE00D601BE0374A121D1068C0F3805C6E
:101660001068BCF1000F00F03F0002D0B5FBF0F0B5
:1016700001E0B3FBF0F013681268C3F3881358431A
:10168000C2F30142521C5200B0FBF2F00860206825
:101690002C4AC0F30310121D105C0A68C2400A6095
:1016A00030BD244A0020116841F4803111604FF4AC
:1016B000A063116800F1010011F4003F01D19842CC
:1016C000F7D11068800331D51A484030016841F0E5
:1016D000805101601C48016841F480410160154857
:1016E000083001680160016841F40041016001684F
:1016F00041F4A0510160031F14491960116841F0C1
:101700008071116011688901FCD5114A40F20561B0
:101710001160016821F003010160016841F00201DC
:1017200001600168C1F381010229FAD1704700000C
:1017300088ED00E000380240FFFFF6FE1030002484
:101740000024F400180000200070004008544007F6
:10175000003C0240704700000FB4044910B503AAD2
:10176000029800F07DF810BC5DF814FB0400002026
:101770002DE9F04104460E4600200AE0E1682046CB
:10178000884738B3252806D0D4E901219047206A3C
:10179000401C2062F2E7E1682046002788470500E8
:1017A00018D0A5F14100192802D820354FF4006760
:1017B0003246294620462760FEF720FD40B1012829
:1017C00004D0F61D26F007060836D7E7361DD5E704
:1017D0002846D9E7206ABDE8F08170B505460C4679
:1017E000012A05D02868800600D5EA69002302E0B6
:1017F000012305E05B1C934202D2E05C0028F9D192
:10180000A869E618C01AA861286A18442862284600
:10181000AFF3008004E0D5E9012114F8010B9047F3
:10182000B442F8D32846AFF3008070BD70477047CC
:101830007047704710B5436913B1AFF3008001E002
:10184000FFF7CBFF012010BD126800F124010A70E0
:1018500000224A700122EDE711684FF0FF32E9E7FC
:10186000074B70B50C467B4400F011F80546204646
:1018700000F020F810B14FF0FF3070BD284670BD69
:10188000FBEFFFFF01694A1C02610878704700B551
:101890008FB0CDE901310021059105497944CDE9A9
:1018A000031011466846FFF763FF0FB000BD00004C
:1018B000E5FFFFFFC06800F080007047754600F04C
:1018C00029F8AE4605006946534620F007008546D4
:1018D00018B020B5FFF722F8BDE820404FF0000611
:1018E0004FF000074FF000084FF0000B21F0070108
:1018F000AC46ACE8C009ACE8C009ACE8C009ACE84B
:10190000C0098D4670470446AFF300802046FEF7BD
:1019100089FC0000004870472C0000204FF0407008
:10192000E1EE100A7047000048190008000000208E
:101930002C000000C4010008741900082C000020CD
:1019400064060000E0010008000000000000000044
:101950000000000001020304010203040607080955
:10196000007A030A000000000000000001020304E6
:041970000607080955
:040000050800018965
:00000001FF
