:020000040800F2
:10000000100400209D0100088902000885020008F4
:1000100087020008E50100085506000800000000FE
:100020000000000000000000000000005503000870
:10003000E7010008000000008B020008F50300083B
:10004000B7010008B7010008B7010008B7010008B0
:10005000B7010008B7010008B7010008B7010008A0
:10006000B7010008B7010008B7010008B701000890
:10007000B7010008B7010008B7010008B701000880
:10008000B7010008B7010008B7010008B701000870
:10009000B7010008B7010008B7010008B701000860
:1000A000B7010008B7010008B7010008B701000850
:1000B000B7010008B7010008B7010008B701000840
:1000C000B7010008B7010008B7010008B701000830
:1000D000B7010008B7010008B7010008B701000820
:1000E000B7010008B7010008B7010008B701000810
:1000F000B7010008B7010008B7010008B701000800
:10010000B7010008B7010008B7010008B7010008EF
:10011000B7010008B7010008B7010008B7010008DF
:10012000B7010008B7010008B7010008B7010008CF
:10013000B7010008B7010008B7010008B7010008BF
:10014000B7010008B7010008B7010008B7010008AF
:10015000B7010008B7010008B7010008B70100089F
:10016000B7010008B7010008B7010008B70100088F
:10017000B7010008B7010008B7010008B70100087F
:10018000B7010008B7010008DFF80CD000F018F83C
:100190000048004735080008100400200648804742
:1001A00006480047FEE7FEE7FEE7FEE7FEE7FEE75C
:1001B000FEE7FEE7FEE7FEE7F90300088901000815
:1001C000064C074D06E0E06840F0010394E80700A4
:1001D00098471034AC42F6D3FFF7DAFFB8090008AD
:1001E000D8090008FEE77047F0B5002201234FF060
:1001F000030C00BF0D6803FA02F42540A5422DD17F
:10020000066854000CFA04F5AE4306600E790768E0
:10021000A6403E4306600E79012E01D0022E12D177
:100220008668AE4386604D798668A5403543856013
:10023000456803FA02F6B543456045688E799640F5
:10024000B6B235434560C56856000CFA06F7BD43A3
:10025000C560CD79A540C4682543C560521C102AED
:10026000C8D3F0BD4B07DB0E9A40C90810B500EBB0
:100270008100016A0F249C40A1430162016A11437D
:10028000016210BDFEE7FEE770477047044A00298F
:10029000116801D0014300E0814311607047000004
:1002A00030380240044A0029116801D0014300E0BF
:1002B00081431160704700004038024030B5224B46
:1002C0001968224A11F00C0104D05510042903D0FA
:1002D000082903D002601DE005601BE01A49091FD0
:1002E0000C68C4F3805C0C68BCF1000F04F03F04A0
:1002F00002D0B5FBF4F201E0B2FBF4F20C6809683D
:10030000C4F388146243C1F30141491C4900B2FBA4
:10031000F1F1016019680E4A01F0F0010909545C1D
:100320000168E14041601C6804F4E054A40A145DD3
:1003300021FA04F484601B6803F460435B0BD25C15
:10034000D140C16030BD0000083802400024F400F4
:100350000000002070470000224900200A6842F493
:1003600080320A604FF4A0630A6800F1010012F4C1
:10037000003F01D19842F7D10868800331D5194870
:100380004030026842F0805202601748026842F42E
:10039000804202601348083002680260026842F43A
:1003A00000420260026842F4A0520260031F0F4A3A
:1003B0001A600A6842F080720A600A689201FCD5ED
:1003C0000B4A40F205611160016821F003010160F0
:1003D000016841F0020101600168C1F38101022955
:1003E000FAD17047003802400070004008484006CB
:1003F000003C0240704700000F4810B5016841F012
:10040000010101600C4A00210832116002680B4BA7
:100410001A400260031D0A4A1A60026822F4802210
:10042000026005480C300160FFF796FF05494FF068
:100430000060086010BD000000380240FFFFF6FEBB
:100440001030002408ED00E030B5012187B08804A9
:10045000FFF728FF01210420FFF718FF02208DF885
:1004600004008DF8050000248DF8064001208DF869
:1004700007008002174D009069462846FFF7B4FE3A
:10048000E814009069462846FFF7AEFE07220A21CD
:100490002846FFF7E7FE07220B212846FFF7E2FE7A
:1004A0004FF41650ADF80C400290ADF80E40ADF888
:1004B0001040ADF814400C20074CADF8120002A912
:1004C000204600F067F80121204600F007F807B049
:1004D00030BD00000008024000480040002981892A
:1004E00002D041F4005101E021F4005181817047B4
:1004F00030B5012187B04804FFF7D4FE012108463A
:10050000FFF7C4FE02208DF804008DF805000024DA
:100510008DF8064001208DF807000420174D00904B
:1005200069462846FFF760FE082000906946284685
:10053000FFF75AFE072202212846FFF793FE072203
:1005400003212846FFF78EFE4FF41650ADF80C40FD
:100550000290ADF80E40ADF81040ADF814400C20FC
:10056000074CADF8120002A9204600F013F8012153
:100570002046FFF7B3FF07B030BD00000000024087
:10058000004400400246002012880A4200D00120A8
:10059000704700007FB50446008A0D4620F44051A4
:1005A000E88808432082A08941F20C618843A98829
:1005B0002A8911436A8902431143A181A08A20F448
:1005C0004071A8890843A0826846FFF777FE1D485E
:1005D000844202D01C48844201D1039800E0029872
:1005E000A1890904002900EBC00101EB0010296872
:1005F00002DA4FEA410101E04FEA8101B0FBF1F07C
:100600006422B0FBF2F14FEA01114FEA11136FF0CF
:1006100018056B4300EB8300A3891D044FF03203E0
:1006200006D503EBC000B0FBF2F000F0070005E0D8
:1006300003EB0010B0FBF2F000F00F000843208144
:100640007FBD00000010014000140140C1F308010B
:1006500081807047FEE702E008C8121F08C1002A27
:10066000FAD170477047002001E001C1121F002A33
:10067000FBD1704710B500F01BF800F019F82B20E3
:1006800000F022F92B2000F01FF92B2000F01CF9BC
:1006900000F00EF8BDE8104000F00AB810B500F008
:1006A00023F9412000F010F9BDE8104000F036B900
:1006B00000214FF6FF700022521C92B28242FBD3FF
:1006C0000022521C92B28242FBD30022521C92B2F0
:1006D0008242FBD30022521C92B28242FBD3002200
:1006E000521C92B28242FBD30022521C92B282422E
:1006F000FBD30022521C92B28242FBD30022521C36
:1007000092B28242FBD30022521C92B28242FBD3AD
:100710000022521C92B28242FBD30022521C92B29F
:100720008242FBD30022521C92B28242FBD30022AF
:10073000521C92B28242FBD30022521C92B28242DD
:10074000FBD30022521C92B28242FBD30022521CE5
:1007500092B28242FBD30022521C92B28242FBD35D
:100760000022521C92B28242FBD30022521C92B24F
:100770008242FBD30022521C92B28242FBD300225F
:10078000521C92B28242FBD30022521C92B282428D
:10079000FBD30022521C92B28242FBD30022521C95
:1007A00092B28242FBD30022521C92B28242FBD30D
:1007B0000022521C92B28242FBD30022521C92B2FF
:1007C0008242FBD30022521C92B28242FBD300220F
:1007D000521C92B28242FBD30022521C92B282423D
:1007E000FBD30022521C92B28242FBD30022521C45
:1007F00092B28242FBD30022521C92B28242FBD3BD
:100800000022521C92B28242FBD30022521C92B2AE
:100810008242FBD30022521C92B28242FBD30022BE
:10082000521C92B28242FBD3491C89B22029FFF4A8
:1008300042AF7047FFF75CFEFFF706FEFFF738FF99
:10084000202000F041F8FFF715FFFFF731FF00F01F
:1008500094F8FFF72DFFFFF721FFFFF729FF412055
:1008600000F032F8422000F02FF8432000F02CF87E
:10087000442000F029F8452000F026F8582000F028
:1008800023F8FFF715FFFFF7F5FE00F057F8FFF725
:100890000FFFFFF703FF0A4D0A4C20212846FFF700
:1008A00071FE0028F9D0A888C3B2A3804021204659
:1008B000FFF768FE0028F9D0582BEED1FEE70000C4
:1008C000004400400048004010B5064C0146204658
:1008D000FFF7BCFE40212046FFF754FE0028F9D068
:1008E00010BD00000044004010B50B4C41212046D3
:1008F000FFF7ACFE40212046FFF744FE0028F9D068
:1009000054212046FFF7A2FE40212046FFF73AFE81
:100910000028F9D010BD00000044004010B5064C7E
:100920000D212046FFF792FE40212046FFF72AFEC8
:100930000028F9D010BD00000044004010B5FFF7BA
:10094000D3FF2620FFF7C0FF4620FFF7BDFF37206B
:10095000FFF7BAFFFFF7E2FFFFF7AAFEFFF7C4FFBA
:100960002620FFF7B1FF5720FFF7AEFF4120FFF72A
:10097000ABFFBDE81040FFF7D1BF10B5FFF7B4FFE4
:100980002620FFF7A1FF4620FFF79EFF3620FFF746
:100990009BFFFFF7C3FFFFF78BFEFFF7A5FF2620A6
:1009A000FFF792FF5720FFF78FFF4120FFF78CFFE3
:1009B000BDE81040FFF7B2BFD809000800000020D2
:1009C0001000000056060008E8090008100000208A
:1009D0000004000066060008000000000102030495
:0809E0000102030406070809E7
:040000050800018965
:00000001FF
