:020000040800F2
:10000000280400209D0100088902000885020008DC
:1000100087020008E5010008B9050008000000009B
:100020000000000000000000000000005503000870
:10003000E7010008000000008B020008F50300083B
:10004000B7010008B7010008B7010008B7010008B0
:10005000B7010008B7010008B7010008B7010008A0
:10006000B7010008B7010008B7010008B701000890
:10007000B7010008B7010008B7010008B701000880
:10008000B7010008B7010008B7010008B701000870
:10009000B7010008B7010008B7010008B701000860
:1000A000B7010008B7010008B7010008B701000850
:1000B000B7010008B7010008B7010008B701000840
:1000C000B7010008B7010008B7010008B701000830
:1000D000B7010008B7010008B7010008B701000820
:1000E000B7010008B7010008B7010008B701000810
:1000F000B7010008B7010008B7010008B701000800
:10010000B7010008B7010008B7010008B7010008EF
:10011000B7010008B7010008B7010008B7010008DF
:10012000B7010008B7010008B7010008B7010008CF
:10013000B7010008B7010008B7010008B7010008BF
:10014000B7010008B7010008B7010008B7010008AF
:10015000B7010008B7010008B7010008B70100089F
:10016000B7010008B7010008B7010008B70100088F
:10017000B7010008B7010008B7010008B70100087F
:10018000B7010008B7010008DFF80CD000F018F83C
:10019000004800475D070008280400200648804703
:1001A00006480047FEE7FEE7FEE7FEE7FEE7FEE75C
:1001B000FEE7FEE7FEE7FEE7F90300088901000815
:1001C000064C074D06E0E06840F0010394E80700A4
:1001D00098471034AC42F6D3FFF7DAFF84080008E2
:1001E000A4080008FEE77047F0B5002201234FF095
:1001F000030C00BF0D6803FA02F42540A5422DD17F
:10020000066854000CFA04F5AE4306600E790768E0
:10021000A6403E4306600E79012E01D0022E12D177
:100220008668AE4386604D798668A5403543856013
:10023000456803FA02F6B543456045688E799640F5
:10024000B6B235434560C56856000CFA06F7BD43A3
:10025000C560CD79A540C4682543C560521C102AED
:10026000C8D3F0BD4B07DB0E9A40C90810B500EBB0
:100270008100016A0F249C40A1430162016A11437D
:10028000016210BDFEE7FEE770477047044A00298F
:10029000116801D0014300E0814311607047000004
:1002A00030380240044A0029116801D0014300E0BF
:1002B00081431160704700004038024030B5224B46
:1002C0001968224A11F00C0104D05510042903D0FA
:1002D000082903D002601DE005601BE01A49091FD0
:1002E0000C68C4F3805C0C68BCF1000F04F03F04A0
:1002F00002D0B5FBF4F201E0B2FBF4F20C6809683D
:10030000C4F388146243C1F30141491C4900B2FBA4
:10031000F1F1016019680E4A01F0F0010909545C1D
:100320000168E14041601C6804F4E054A40A145DD3
:1003300021FA04F484601B6803F460435B0BD25C15
:10034000D140C16030BD0000083802400024F400F4
:100350001500002070470000224900200A6842F47E
:1003600080320A604FF4A0630A6800F1010012F4C1
:10037000003F01D19842F7D10868800331D5194870
:100380004030026842F0805202601748026842F42E
:10039000804202601348083002680260026842F43A
:1003A00000420260026842F4A0520260031F0F4A3A
:1003B0001A600A6842F080720A600A689201FCD5ED
:1003C0000B4A40F205611160016821F003010160F0
:1003D000016841F0020101600168C1F38101022955
:1003E000FAD17047003802400070004008484006CB
:1003F000003C0240704700000F4810B5016841F012
:10040000010101600C4A00210832116002680B4BA7
:100410001A400260031D0A4A1A60026822F4802210
:10042000026005480C300160FFF796FF05494FF068
:100430000060086010BD000000380240FFFFF6FEBB
:100440001030002408ED00E00029818902D041F439
:10045000005101E021F400518181704730B5012144
:1004600087B04804FFF71EFF01210846FFF70EFF83
:1004700002208DF804008DF8050000248DF8064058
:1004800001208DF807000420174D0090694628468A
:10049000FFF7AAFE0820009069462846FFF7A4FE51
:1004A000072202212846FFF7DDFE07220321284606
:1004B000FFF7D8FE4FF41640ADF80C400290ADF8AF
:1004C0000E40ADF81040ADF814400C20074CADF8CC
:1004D000120002A9204600F013F801212046FFF780
:1004E000B3FF07B030BD00000000024000440040F0
:1004F0000246002012880A4200D001207047000006
:100500007FB50446008A0D4620F44051E888084330
:100510002082A08941F20C618843A9882A8911436D
:100520006A8902431143A181A08A20F44071A889FD
:100530000843A0826846FFF7C1FE1D48844202D0EE
:100540001C48844201D1039800E00298A189090463
:10055000002900EBC00101EB0010296802DA4FEA24
:10056000410101E04FEA8101B0FBF1F06422B0FBF0
:10057000F2F14FEA01114FEA11136FF018056B43C6
:1005800000EB8300A3891D044FF0320306D503EB73
:10059000C000B0FBF2F000F0070005E003EB001034
:1005A000B0FBF2F000F00F00084320817FBD000097
:1005B0000010014000140140FEE702E008C8121FCD
:1005C00008C1002AFAD170477047002001E001C13C
:1005D000121F002AFBD1704700214FF6FF70002246
:1005E000521C92B28242FBD30022521C92B282422F
:1005F000FBD30022521C92B28242FBD30022521C37
:1006000092B28242FBD30022521C92B28242FBD3AE
:100610000022521C92B28242FBD30022521C92B2A0
:100620008242FBD30022521C92B28242FBD30022B0
:10063000521C92B28242FBD30022521C92B28242DE
:10064000FBD30022521C92B28242FBD30022521CE6
:1006500092B28242FBD30022521C92B28242FBD35E
:100660000022521C92B28242FBD30022521C92B250
:100670008242FBD30022521C92B28242FBD3002260
:10068000521C92B28242FBD30022521C92B282428E
:10069000FBD30022521C92B28242FBD30022521C96
:1006A00092B28242FBD30022521C92B28242FBD30E
:1006B0000022521C92B28242FBD30022521C92B200
:1006C0008242FBD30022521C92B28242FBD3002210
:1006D000521C92B28242FBD30022521C92B282423E
:1006E000FBD30022521C92B28242FBD30022521C46
:1006F00092B28242FBD30022521C92B28242FBD3BE
:100700000022521C92B28242FBD30022521C92B2AF
:100710008242FBD30022521C92B28242FBD30022BF
:10072000521C92B28242FBD30022521C92B28242ED
:10073000FBD30022521C92B28242FBD30022521CF5
:1007400092B28242FBD30022521C92B28242FBD36D
:10075000491C89B22029FFF442AF704770B5FFF7FA
:100760007DFEFFF739FFFFF737FF3E4D3E4B00247C
:10077000285D988080211846FFF7BAFE0028F9D03E
:10078000641C052CF4D30024FFF726FF641C052C01
:10079000FAD3344D00240A35285D9880802118460C
:1007A000FFF7A6FE0028F9D0641C052CF4D3FFF750
:1007B00013FF2C4D00246D1D285D98808021184664
:1007C000FFF796FE0028F9D0641C052CF4D3FFF740
:1007D00003FFFFF701FF234D00240F35285D9880AC
:1007E00080211846FFF784FE0028F9D0641C052CF0
:1007F000F4D3FFF7F1FEFFF7EFFE1C4D0024285D58
:10080000988080211846FFF773FE0028F9D0641CF9
:10081000102CF4D300214FF6FF70491C89B281429D
:10082000FBD30021491C89B28142FBD30021491C22
:1008300089B28142FBD30021491C89B28142FBD39A
:100840005FF00003FFF7C8FE5B1C1E2BFAD3FFF717
:10085000C3FEFFF7C1FEFFF7BFFEFFF7BDFE00209E
:1008600070BD000070080008004400400500002032
:10087000005600260056003601005600540100566E
:1008800000340100A4080008000000202800000037
:10089000BA050008CC080008280000200004000069
:1008A000CA05000800000000005600320C000A00D3
:1008B0000000000000FF0000FF0000000001020334
:0C08C00004010203040607080900000000
:040000050800018965
:00000001FF
