:020000040800F2
:10000000100400209D010008A30400089D020008C0
:10001000A1040008E5010008FD0700080000000039
:10002000000000000000000000000000890500083A
:10003000E701000800000000A504000829060008E8
:10004000B7010008B7010008B7010008B7010008B0
:10005000B7010008B7010008B7010008B7010008A0
:10006000B7010008B7010008B7010008B701000890
:10007000B7010008B7010008B7010008B701000880
:10008000B7010008B7010008B7010008B701000870
:10009000B7010008B7010008B7010008B701000860
:1000A000B7010008B7010008B7010008B701000850
:1000B000B7010008B7010008B7010008B701000840
:1000C000B7010008B7010008B7010008B701000830
:1000D000B7010008B7010008B7010008B701000820
:1000E000B7010008B7010008B7010008B701000810
:1000F000B7010008B7010008B7010008B701000800
:10010000B7010008B7010008B7010008B7010008EF
:10011000B7010008B7010008B7010008B7010008DF
:10012000B7010008B7010008B7010008B7010008CF
:10013000B7010008B7010008B7010008B7010008BF
:10014000B7010008B7010008B7010008B7010008AF
:10015000B7010008B7010008B7010008B70100089F
:10016000B7010008B7010008B7010008B70100088F
:10017000B7010008B7010008B7010008B70100087F
:10018000B7010008B7010008DFF80CD000F018F83C
:100190000048004773080008100400200648804704
:1001A00006480047FEE7FEE7FEE7FEE7FEE7FEE75C
:1001B000FEE7FEE7FEE7FEE72D06000889010008DE
:1001C000064C074D06E0E06840F0010394E80700A4
:1001D00098471034AC42F6D3FFF7DAFF140A000850
:1001E000340A0008FEE77047F0B5002201234FF003
:1001F000030C00BF0D6803FA02F42540A5422DD17F
:10020000066854000CFA04F5AE4306600E790768E0
:10021000A6403E4306600E79012E01D0022E12D177
:100220008668AE4386604D798668A5403543856013
:10023000456803FA02F6B543456045688E799640F5
:10024000B6B235434560C56856000CFA06F7BD43A3
:10025000C560CD79A540C4682543C560521C102AED
:10026000C8D3F0BD4B07DB0E9A40C90810B500EBB0
:100270008100016A0F249C40A1430162016A11437D
:10028000016210BD002000F067BB1D2000F064BBC0
:100290001F2000F061BB212000F00CBBFEE700290D
:1002A000018802D041F4806101E021F48061018085
:1002B00070470029018802D041F0010101E021F0DE
:1002C000010101807047000030B5012187B0480569
:1002D00000F0F6F80121022000F0E6F81E4D04229D
:1002E00009212846FFF7BEFF042206212846FFF712
:1002F000B9FF4FF41070049002208DF81400002410
:100300008DF8154001208DF816008DF8174004A9CE
:100310002846FFF769FF114D284600F021F801211A
:100320002846FFF7C6FFADF804404BF6FF70ADF866
:100330000600FE20ADF808002815ADF80A000001FF
:10034000ADF80C0047F2305000906946284600F0A6
:100350003DF807B030BD00000004024000540040EA
:100360000D4910B5884202D101214C050AE00B4924
:10037000884202D101218C0504E0094988420AD152
:100380000121CC05204600F0A7F82046BDE810402A
:10039000002100F0A1B810BD0054004000580040FA
:1003A000005C00400029018802D041F4807101E026
:1003B00021F48071018070470029018802D041F446
:1003C000007101E021F40071018070477FB504469F
:1003D00080880D4620F03F06684600F089F82649DF
:1003E0000298B0FBF1F189B20E43A680228822F078
:1003F00001022280214B2A689A421BD85200B0FB8E
:10040000F2F080B2042800D20420491C2184A08389
:10041000208840F00100208021884FF6F53001400F
:10042000A8886A89104308432080A889298908433D
:1004300020817FBDEB88A3F53F46FF3E05D102EB4F
:100440004202B0FBF2F080B208E002EBC20303EB21
:100450000212B0FBF2F080B240F48040020501D1FC
:1004600040F001004FF4967251434FF47A72B1FBA1
:10047000F2F140F40040C8E740420F00A0860100BE
:10048000B1F5006F018803D021F40061018070474D
:1004900041F40061FAE7008AC0B2704701827047F8
:1004A000FEE7704770470000044A0029116801D038
:1004B000014300E081431160704700003038024082
:1004C000044A0029116801D0014300E08143116012
:1004D0007047000040380240044A0029116801D0EA
:1004E000014300E081431160704700002038024062
:1004F00030B5224B1968224A11F00C0104D0551076
:10050000042903D0082903D002601DE005601BE028
:100510001A49091F0C68C4F3805C0C68BCF1000F19
:1005200004F03F0402D0B5FBF4F201E0B2FBF4F2B8
:100530000C680968C4F388146243C1F30141491C83
:100540004900B2FBF1F1016019680E4A01F0F001B7
:100550000909545C0168E14041601C6804F4E054FE
:10056000A40A145D21FA04F484601B6803F4604358
:100570005B0BD25CD140C16030BD00000838024046
:100580000024F400000000207047000022490020F1
:100590000A6842F480320A604FF4A0630A6800F1EE
:1005A000010012F4003F01D19842F7D1086880039E
:1005B00031D519484030026842F080520260174835
:1005C000026842F480420260134808300268026008
:1005D000026842F400420260026842F4A0520260E3
:1005E000031F0F4A1A600A6842F080720A600A68A4
:1005F0009201FCD50B4A40F205611160016821F0BF
:1006000003010160016841F0020101600168C1F36A
:1006100081010229FAD17047003802400070004081
:1006200008484006003C0240704700000F4810B5E3
:10063000016841F0010101600C4A0021083211609B
:1006400002680B4B1A400260031D0A4A1A600268D6
:1006500022F48022026005480C300160FFF796FF0B
:1006600005494FF00060086010BD000000380240EE
:10067000FFFFF6FE1030002408ED00E01B2000F024
:100680006BB90029818902D041F4005101E021F4C5
:10069000005181817047000030B5012187B04804C6
:1006A000FFF70EFF01210846FFF7FEFE02208DF83E
:1006B00004008DF8050000248DF8064001208DF817
:1006C00007000420174D009069462846FFF78CFD6F
:1006D0000820009069462846FFF786FD0722022180
:1006E0002846FFF7BFFD072203212846FFF7BAFD82
:1006F0004FF41650ADF80C400290ADF80E40ADF836
:100700001040ADF814400C20074CADF8120002A9BF
:10071000204600F013F801212046FFF7B2FF07B092
:1007200030BD0000000002400044004002460020AE
:1007300012880A4200D00120704700007FB50446AD
:10074000008A0D4620F44051E88808432082A089A1
:1007500041F20C618843A9882A8911436A890243BE
:100760001143A181A08A20F44071A8890843A08286
:100770006846FFF7BDFE1D48844202D01C488442F3
:1007800001D1039800E00298A1890904002900EB37
:10079000C00101EB0010296802DA4FEA410101E0D3
:1007A0004FEA8101B0FBF1F06422B0FBF2F14FEAB5
:1007B00001114FEA11136FF018056B4300EB830032
:1007C000A3891D044FF0320306D503EBC000B0FB34
:1007D000F2F000F0070005E003EB0010B0FBF2F0D0
:1007E00000F00F00084320817FBD00000010014091
:1007F00000140140C1F3080181807047FEE702E068
:1008000008C8121F08C1002AFAD17047704700209B
:1008100001E001C1121F002AFBD1704700214FF6F1
:10082000FF700022521C92B28242FBD30022521C63
:1008300092B28242FBD30022521C92B28242FBD37C
:100840000022521C92B28242FBD30022521C92B26E
:100850008242FBD30022521C92B28242FBD300227E
:10086000521C92B28242FBD3491C89B22029D8D3B0
:10087000704710B5FFF710FFFFF7D0FFFFF724FD1B
:10088000FFF7CCFFFFF7FEFCFFF7C8FFFFF7C6FF3F
:10089000FFF7F4FEFFF7C2FFFFF7F7FCFFF7BEFF1D
:1008A000FFF7F6FCFFF7BAFFFFF7F5FCFFF7B6FF1F
:1008B000002010BD70B5264E044601213046FFF7DA
:1008C000EEFC01213046FFF76DFDD2213046FFF7E7
:1008D000E5FD21463046FFF7E1FD00F083F80121F8
:1008E0003046FFF75FFDD3213046FFF7D7FD00F01C
:1008F00079F83046FFF7CFFD044600213046FFF778
:10090000CEFC4FF2FF713046FFF7BAFD00F06AF8F7
:100910003046FFF7C0FD054600F064F8012130467F
:10092000FFF74AFD21460B4C2046FFF763FF4021AD
:100930002046FFF7FBFE0028F9D029462046FFF7A6
:1009400059FF40212046FFF7F1FE0028F9D070BD85
:10095000005400400044004070B5204D0446012181
:100960002846FFF79CFC01212846FFF71BFD00F0FD
:1009700039F8D2212846FFF791FD00F033F82146DF
:100980002846FFF78BFD00F02DF801212846FFF7E0
:1009900009FDD3212846FFF781FD00F023F800214F
:1009A0002846FFF77CFC4FF2FF712846FFF768FDF1
:1009B0002846FFF770FD044600F014F80121284690
:1009C000FFF7FAFC2146064C2046FFF713FF4021B3
:1009D0002046FFF7ABFE0028F9D070BD0054004060
:1009E0000044004000214FF6FF70491C89B281424B
:1009F000FBD30021491C89B28142FBD30021491C51
:100A000089B28142FBD30021491C89B28142FBD3C8
:100A100070470000340A00080000002010000000A9
:100A2000FE070008440A000810000020000400002F
:100A30000E08000800000000010203040102030484
:040A40000607080994
:040000050800018965
:00000001FF
