:020000040800F2
:10000000100400209D0100087B030008770300080E
:1000100079030008E5010008C5060008000000009B
:100020000000000000000000000000006104000863
:10003000E7010008000000007D030008010500083A
:10004000B7010008B7010008B7010008B7010008B0
:10005000B7010008B7010008B7010008B7010008A0
:10006000B7010008B7010008B7010008B701000890
:10007000B7010008B7010008B7010008B701000880
:10008000B7010008B7010008B7010008B701000870
:10009000B7010008B7010008B7010008B701000860
:1000A000B7010008B7010008B7010008B701000850
:1000B000B7010008B7010008B7010008B701000840
:1000C000B7010008B7010008B7010008B701000830
:1000D000B7010008B7010008B7010008B701000820
:1000E000B7010008B7010008B7010008B701000810
:1000F000B7010008B7010008B7010008B701000800
:10010000B7010008B7010008B7010008B7010008EF
:10011000B7010008B7010008B7010008B7010008DF
:10012000B7010008B7010008B7010008B7010008CF
:10013000B7010008B7010008B7010008B7010008BF
:10014000B7010008B7010008B7010008B7010008AF
:10015000B7010008B7010008B7010008B70100089F
:10016000B7010008B7010008B7010008B70100088F
:10017000B7010008B7010008B7010008B70100087F
:10018000B7010008B7010008DFF80CD000F018F83C
:1001900000480047B70700081004002006488047C1
:1001A00006480047FEE7FEE7FEE7FEE7FEE7FEE75C
:1001B000FEE7FEE7FEE7FEE7050500088901000807
:1001C000064C074D06E0E06840F0010394E80700A4
:1001D00098471034AC42F6D3FFF7DAFF6009000805
:1001E00080090008FEE770472F4910B5884206D104
:1001F0000121084600F0D0F8002101204FE02B49F2
:10020000884206D10121022000F0C6F80021022018
:1002100045E02749884206D10121042000F0BCF8BE
:10022000002104203BE02349884206D10121082017
:1002300000F0B2F80021082031E01F49884206D1C1
:100240000121102000F0A8F80021102027E01B4910
:10025000884206D10121202000F09EF800212020B4
:100260001DE01749884206D10121402000F094F892
:100270000021402013E01349884206D1012180204B
:1002800000F08AF80021802009E00F4988420AD155
:1002900084150121204600F07FF800212046BDE8AA
:1002A000104000F079B810BD000002400004024088
:1002B00000080240000C02400010024000140240FE
:1002C00000180240001C024000200240F0B500224D
:1002D00001234FF0030C00BF0D6803FA02F4254020
:1002E000A5422DD1066854000CFA04F5AE43066011
:1002F0000E790768A6403E4306600E79012E01D0B4
:10030000022E12D18668AE4386604D798668A5407C
:1003100035438560456803FA02F6B5434560456894
:100320008E799640B6B235434560C56856000CFAE2
:1003300006F7BD43C560CD79A540C4682543C560B7
:10034000521C102AC8D3F0BD4B07DB0E9A40C908D7
:1003500010B500EB8100016A0F249C40A1430162AB
:10036000016A1143016210BD006980B27047418388
:10037000704701837047FEE7FEE770477047000053
:10038000044A0029116801D0014300E08143116053
:100390007047000030380240044A0029116801D03B
:1003A000014300E0814311607047000010380240B3
:1003B000044A0029116801D0014300E08143116023
:1003C000704700004038024030B5224B1968224A7D
:1003D00011F00C0104D05510042903D0082903D0D2
:1003E00002601DE005601BE01A49091F0C68C4F398
:1003F000805C0C68BCF1000F04F03F0402D0B5FB38
:10040000F4F201E0B2FBF4F20C680968C4F388145A
:100410006243C1F30141491C4900B2FBF1F10160A3
:1004200019680E4A01F0F0010909545C0168E140C5
:1004300041601C6804F4E054A40A145D21FA04F439
:1004400084601B6803F460435B0BD25CD140C160E5
:1004500030BD0000083802400024F40000000020F5
:1004600070470000224900200A6842F480320A6086
:100470004FF4A0630A6800F1010012F4003F01D1BB
:100480009842F7D10868800331D519484030026896
:1004900042F0805202601748026842F480420260D3
:1004A0001348083002680260026842F400420260A9
:1004B000026842F4A0520260031F0F4A1A600A68E1
:1004C00042F080720A600A689201FCD50B4A40F241
:1004D00005611160016821F003010160016841F0CC
:1004E000020101600168C1F381010229FAD170475C
:1004F000003802400070004008484006003C0240BE
:10050000704700000F4810B5016841F0010101601B
:100510000C4A00210832116002680B4B1A4002603D
:10052000031D0A4A1A60026822F48022026005480C
:100530000C300160FFF796FF05494FF0006008603E
:1005400010BD000000380240FFFFF6FE103000240E
:1005500008ED00E00029818902D041F4005101E05A
:1005600021F400518181704730B5012187B04804E2
:10057000FFF71EFF01210846FFF702FF02208DF85A
:1005800004008DF8050000248DF8064001208DF848
:1005900007000420174D009069462846FFF796FE95
:1005A0000820009069462846FFF790FE07220221A6
:1005B0002846FFF7C9FE072203212846FFF7C4FE9D
:1005C0004FF41650ADF80C400290ADF80E40ADF867
:1005D0001040ADF814400C20074CADF8120002A9F1
:1005E000204600F013F801212046FFF7B3FF07B0C3
:1005F00030BD0000000002400044004002460020E0
:1006000012880A4200D00120704700007FB50446DE
:10061000008A0D4620F44051E88808432082A089D2
:1006200041F20C618843A9882A8911436A890243EF
:100630001143A181A08A20F44071A8890843A082B7
:100640006846FFF7C1FE1D48844202D01C48844220
:1006500001D1039800E00298A1890904002900EB68
:10066000C00101EB0010296802DA4FEA410101E004
:100670004FEA8101B0FBF1F06422B0FBF2F14FEAE6
:1006800001114FEA11136FF018056B4300EB830063
:10069000A3891D044FF0320306D503EBC000B0FB65
:1006A000F2F000F0070005E003EB0010B0FBF2F001
:1006B00000F00F00084320817FBD000000100140C2
:1006C00000140140FEE702E008C8121F08C1002A1A
:1006D000FAD170477047002001E001C1121F002AC3
:1006E000FBD170472DE9FC411B4F3846FFF77CFDDD
:1006F00001210420FFF744FE00258DF80450022656
:10070000FF208DF80560012400908DF807406946B0
:100710003846FFF7DBFD114F3846FFF765FD012135
:100720001020FFF72DFE8DF804408DF8056041F68E
:1007300007208DF8065000908DF80740694638462E
:10074000FFF7C4FDA00200908DF8044069463846CA
:10075000FFF7BCFDBDE8FC8100080240001002402C
:1007600000214FF6FF700022521C92B28242FBD34E
:100770000022521C92B28242FBD30022521C92B23F
:100780008242FBD30022521C92B28242FBD300224F
:10079000521C92B28242FBD30022521C92B282427D
:1007A000FBD30022521C92B28242FBD3491C89B275
:1007B0002029D8D3704710B5FFF7D6FEFFF7D0FF3A
:1007C000FFF790FFFFF7CCFF002000F027F8FFF7BE
:1007D000C7FF012000F022F8FFF7C2FF022000F05F
:1007E0001DF8FFF7BDFF032000F018F8FFF7B8FF72
:1007F000042000F013F8FFF7B3FF052000F00EF817
:10080000FFF7AEFF062000F009F8FFF7A9FF072069
:1008100000F004F8FFF7A4FF002010BD70B5414CB4
:10082000082836D2DFE800F00409161B2429707569
:1008300001212046FFF79BFD03E001212046FFF741
:1008400098FD02212046FFF792FD04212046FFF784
:100850008EFD1EE001212046FFF789FD03E0012106
:100860002046FFF786FD02212046FFF782FDECE7D8
:1008700001212046FFF77BFD03E001212046FFF721
:1008800078FD02212046FFF772FD04212046FFF784
:1008900070FD4FF4006529462046FFF76AFD00F021
:1008A00047F829462046FFF762FD6D00294620469D
:1008B000FFF75FFD00F03CF829462046FFF757FDA3
:1008C00000F036F8FFF74CFFFFF74AFFFFF748FF4D
:1008D000FFF746FFE9102046FFF74BFDFFF740FF0B
:1008E0001148FFF741FD114BC0B298808021184696
:1008F000FFF784FE0028F9D000F01AF829462046B8
:10090000BDE87040FFF733BD01212046FFF72FFD02
:1009100003E001212046FFF72CFD02212046FFF7CE
:1009200028FDB2E7001002400008024000440040E9
:1009300000214FF6FF70491C89B28142FBD3002190
:10094000491C89B28142FBD30021491C89B28142F2
:10095000FBD30021491C89B28142FBD370470000C0
:10096000800900080000002010000000C6060008F2
:10097000900900081000002000040000D6060008BE
:100980000000000001020304010203040607080935
:040000050800018965
:00000001FF
