:020000040800F2
:10000000680A00203D1800085D1500085F1500080B
:100010006115000863150008651500080000000060
:10002000000000000000000000000000671500084C
:1000300069150008000000006B1500086D15000828
:1000400057180008571800085718000857180008D4
:1000500057180008571800085718000857180008C4
:1000600057180008571800085718000857180008B4
:1000700057180008571800085718000857180008A4
:100080005718000857180008571800085718000894
:100090005718000857180008571800085718000884
:1000A0005718000857180008571800085718000874
:1000B0005718000857180008571800085718000864
:1000C0005718000857180008571800085718000854
:1000D000571800086F150008BB13000857180008D0
:1000E0005718000857180008571800085718000834
:1000F0005718000857180008571800085718000824
:100100005718000857180008571800085718000813
:100110005718000857180008571800085718000803
:1001200057180008571800085718000857180008F3
:1001300057180008571800085718000857180008E3
:1001400057180008571800085718000857180008D3
:1001500057180008571800085718000857180008C3
:1001600057180008571800085718000857180008B3
:1001700057180008571800085718000857180008A3
:10018000571800085718000800F002F800F047F868
:100190000AA090E8000C82448344AAF10107DA45E2
:1001A00001D100F03CF8AFF2090EBAE80F0013F0ED
:1001B000010F18BFFB1A43F001031847B4280000D1
:1001C000D4280000103A24BF78C878C1FAD8520762
:1001D00024BF30C830C144BF04680C6070470000C1
:1001E0000023002400250026103A28BF78C1FBD840
:1001F000520728BF30C148BF0B607047642902F026
:100200007F82782902F0B882632902F09783002068
:1002100070471FB502F0FCFB1FBD10B510BD02F00A
:10022000C7FB1146FFF7F5FF00F065FF02F0E5FBA5
:1002300003B4FFF7F2FF03BC01F07BF970B5FA4D90
:100240001021284601F038FCD72001F0C3FA01F054
:10025000DAFA04461021284601F02CFCE0B270BD09
:100260002DE9F041DFF8C08305460C4617461E46CF
:100270001021404601F020FC012E02D0022E02D0B7
:1002800004E0D42000E0D62001F0A4FA002001F020
:10029000A1FAC4F3072001F09DFAE0B201F09AFA46
:1002A000002001F097FA002405E001F0ACFA641C8C
:1002B00005F8010BE4B2BC42F7D34046BDE8F0417B
:1002C000102101F0F7BB2DE9F041DFF85C83064611
:1002D0000C4617461D461021404601F0EDFB012D4E
:1002E00002D0022D02D004E0842000E0872001F03B
:1002F00071FAFF2001F06EFAC4F3072001F06AFAE8
:10030000E0B201F067FA002403E0305D01F062FA28
:10031000641CBC42F9D34046BDE8F041102101F015
:10032000C9BB2DE9F047DFF8009305460C46164699
:10033000984610214846089F01F0BEFB012F02D0CD
:10034000022F02D004E0822000E0852001F042FA72
:10035000C4F3C71001F03EFA6006C6F3002141EA7B
:10036000106001F037FAF0B201F034FA002404E032
:10037000287801F02FFA6D1C641C4445F8D34846D8
:10038000BDE8F047102101F095BB70B5A64E0546BB
:100390000C461021304601F08FFB012C02D0022CBC
:1003A00002D004E0832000E0862001F013FAC5F3B8
:1003B000C71001F00FFA6806000E01F00BFA0020DA
:1003C00001F008FA3046BDE87040102101F072BB20
:1003D0002DE9F041DFF8508205460C4616461F46CF
:1003E0001021404601F068FBD22001F0F3F9C4F37C
:1003F000C71001F0EFF96006C6F3002141EA106072
:1004000001F0E8F9F0B201F0E5F90024002001F074
:10041000E1F9641C042CF9D3002404E001F0F3F9A1
:1004200005F8010B641CBC42F8D34046BDE8F0411E
:10043000102101F03FBB70B57B4E05460C461021E4
:10044000304601F039FB012C02D0022C02D004E02E
:10045000532000E0552001F0BDF9C5F3C71001F0AD
:10046000B9F96806000E01F0B5F9002001F0B2F903
:100470003046BDE87040102101F01CBB70B56A4DDC
:1004800004461021284601F017FBC4F3C71001F001
:10049000A1F96006000E01F09DF9002001F09AF923
:1004A0002846BDE87040102101F004BB70B55E4DD8
:1004B00004461021284601F0FFFAC4F3C70001F0FA
:1004C00089F96007000E01F085F9002001F082F93A
:1004D0002846BDE87040102101F0ECBA70B5524DCD
:1004E00004461021284601F0E7FAA006000E01F0AC
:1004F00071F9002001F06EF9002001F06BF9284637
:10050000BDE87040102101F0D5BA08B50123009371
:100510004FF40473FFF705FF08BD4FF4047357E76A
:1005200070B5414E05461021304601F0C5FA322023
:1005300001F050F9002001F04DF9002001F04AF9D6
:10054000002001F047F9002401F05DF92855641CF2
:10055000E4B2082CF8D33046BDE87040102101F019
:10056000A9BA70B5304E05461021304601F0A4FA04
:10057000352001F02FF9002001F02CF9002001F0C6
:1005800029F9002001F026F9002401F03CF9285552
:10059000641CE4B2082CF8D33046BDE8704010214A
:1005A00001F088BA70B5204D1021284601F084FA78
:1005B000D72001F00FF901F026F9C4B22006FAD5D0
:1005C0001021284601F076FA204670BD10B503468A
:1005D000002248F2084403F001004840C10702D05D
:1005E00084EA500100E04108521C5B08D2B2082A9C
:1005F000F1D3084610BD7E2101700321C173F021A3
:1006000001744FF6FF71A0F8141100210A46431837
:10061000491C89B25A700E29F9D300F58B704270CB
:100620000270027170470000000002404FF6FF7137
:10063000A0F8121100210A464318491C89B25A74C5
:10064000FF29F9D9A0F81821ECE700B58446FFF797
:10065000EDFF60465DF804EBCDE700210A464FF45C
:10066000C8734254491C89B29942FAD300F5C87044
:100670000270427042800271427182600273427362
:10068000C281027442744261CCE710B504464FF057
:10069000000C08E004EB0C004078FFF797FFA4F88B
:1006A00014010CF1010C94F81701B4F81411604511
:1006B000F0DCE07BFFF78AFFA4F81401227C0146FE
:1006C0001046FFF783FFA4F8140110BD2DE9F04791
:1006D00088B00024DDE91159DDF840A0139E0DF12A
:1006E000100802AF11F804C04FEA4C0C08F804C01F
:1006F00013F804C04FEA4C0C07F804C0641CE4B2C1
:10070000062CEFD34FF0600C4CEA42018DF8161026
:100710004CEA4A01CCB28DF80E400E2180F8171138
:10072000DDB190F816116B46491C80F816110021B6
:100730006A5C52005A5490F81721491C521CC9B2E5
:1007400080F817210629F3D34CEA49018DF80610E9
:1007500090F81711491C80F81711E6B190F816119E
:1007600006AB491C80F816110021725C52005A54E5
:1007700090F81721491C521CC9B280F8172106298C
:10078000F3D3612141EA49018DF81E1090F8171149
:10079000491C80F817110DB12EB10AE044F0010197
:1007A0008DF80E1005E09DF8061041F001018DF85E
:1007B000061000210A46441818F80230491C521C41
:1007C000D2B26370C9B2072AF5D300224418BB5CC9
:1007D000491C521CD2B26370C9B2072AF6D3FFF784
:1007E00054FF08B0BDE8F08710B50446B0F8141106
:1007F0004FF0000C09E004EB0C00407CFFF7E6FE34
:100800000CF1010C01461FFA8CFCB4F8180160458C
:10081000F1D8C843A4F8120110BD30B4002304E09D
:10082000CC5CC5185B1C6C749BB29342F8D9521C0B
:10083000A0F8182130BCD7E7F0B501240023A64664
:100840001F4604EA00056406240EDD4028D092F815
:10085000916192F8945192F895C1AE404CEA060C21
:1008600082F895C16D1C82F89451B2F8925102F849
:1008700005C092F890516D1CEDB282F8905192F83B
:100880009461082E08D1B2F89261761CA2F89261A8
:1008900082F8957182F89471052D27D1012925D10F
:1008A00002F5C87256782EEA06055570167992F848
:1008B00005C005FA06F54CEA050C82F805C006F1FC
:1008C000010616715588A2F5C87202F805C082F8B3
:1008D000907192F89451082D08D1B2F892516D1C84
:1008E000A2F8925182F8957182F894715B1C9BB2C8
:1008F000082BA6D3F0BDF0B51746134606460C46A6
:100900000A4600780021FFF797FF002508E07019DC
:100910003B46407822460121FFF78EFF6D1CEDB269
:1009200096F81701A842F2D8F07B3B4622460121F7
:10093000FFF782FF307C3B4622460121FFF77CFF18
:1009400004F5C87420782073607860736088E08153
:100950002079207460796074A0686061F0BDF0B5A2
:1009600005460E461746002408E028193B46407C01
:1009700032460121FFF760FF641CA4B2B5F81801EC
:10098000A042F2D8B5F812113B46C8B20C0A324662
:100990000121FFF751FF3B46324601212046FFF778
:1009A0004BFF28783B463246BDE8F040002143E744
:1009B000B0F89E1100224FF4C87302E04254491C63
:1009C00089B29942FAD300F5C870017B0170417B6E
:1009D0004170C1894180017C0171417C4171416953
:1009E00081601FE670B50124002200EA04034FEA8B
:1009F0004464D3404FEA146402D091F8913103E08B
:100A000091F891510123AB4301F5C8714B700E79F8
:100A10004D7903FA06F345EA03054D714B88A1F5BC
:100A2000C871CD5491F8943103F10103DBB281F820
:100A30009431082B09D1B1F892315B1CA1F89231A5
:100A4000002381F8953181F89431521CD2B2082AE2
:100A5000CBD370BD00210A464254491C89B20E29ED
:100A6000FAD301218173C273027400214318491C17
:100A700089B25A74FF29F9D900F588704FF6FF71D1
:100A8000427041800271CDE500210170417081709A
:100A9000C17080F81A11C0F81C1180F8201180F87C
:100AA0002111BFE510B40022828011464FF48A73F1
:100AB0004418491C89B2A2719942F9D310BCE3E7EA
:100AC00070B54FF6FF7605463146002404E0FFF787
:100AD0007DFD641C0146A4B2A888801EA04205EBDF
:100AE00004008079F3DC641CA2B22A447140CBB2CA
:100AF0009279090A984203D18A4201D1012070BD3E
:100B0000002070BD2DE9F04104460E460846FFF76F
:100B1000D7FF002866D04FF001080025FAA001F0A9
:100B2000B9FD00277019807941086155FEA001F0D8
:100B3000B1FD6D1C7F1CFFB2EDB2062FF2D3771909
:100B4000B879C0F343016155F8A001F0A3FDB8796D
:100B500005F10105C007EDB205D1A07B401CA073D3
:100B6000B8F1000FDDD170196D1C8179E173EDB220
:100B7000F2A001F08FFD70196D1C81792174EDB226
:100B8000F4A001F087FDF7A001F084FD002711E03B
:100B90007019E11980797F1C4874FFB2E019017C5B
:100BA000F7A001F077FD94F81101401C6D1C84F84A
:100BB0001101EDB2B088C01EA842E9DC6D1CE8B29C
:100BC0003118401CC0B289793044A4F812118079E0
:100BD00041EA0021A4F81211EBA001F05BFD002016
:100BE000B0800120BDE8F0812DE9F041030092F8CA
:100BF0001A010D4614464FF0010601D126EA000005
:100C0000E178002719B194F8201105290AD080B1A4
:100C1000207840F08000207094F82001401C84F877
:100C200020010CE00028F3D184F8207182F81A31F9
:100C3000D8E7207800F07F00207084F8207184F8D5
:100C40001A31A07860B36078401CC0B26070082888
:100C500026D1677020787E2801D0E67019E0E77011
:100C6000A0881638FE281FD211462846FFF74AFFF3
:100C700028B185F814612046BDE8F04104E785F805
:100C800014712046FFF70EFF2846FFF7E3FEE078D9
:100C900030B1A288A01D21781154A088401CA080EA
:100CA00020787E2803D005E0A770A78001E0A07817
:100CB00000B9A67020784008207093E7F0B506468A
:100CC00085B00F4615461C46B348FFF7C6FCB3482F
:100CD000FFF7BBFCB248047046708770C5700024F3
:100CE000054606E00022AC491046FFF77BFE641C77
:100CF000E4B26878A042F5D8002406E00022A649B4
:100D00007E20FFF76FFE641CE4B2A878A042F5D8FD
:100D10000020019002900390049002460090A1A34D
:100D2000A2A19E48FFF7D2FC05B00022BDE8F0402A
:100D300099499A48DFE59F49484300E0401E002852
:100D4000FCD16FE46EE40020401CC0B20828FBD345
:100D500068E400B50246002104E0505CFFF7F3FFB1
:100D6000491C89B2B2F892018842F6D8002192F863
:100D7000940101E0491C89B28842FBD800BD30B51E
:100D80000C460021054601558448FFF74FFC824878
:100D9000FFF70EFE224629468048FFF73EFD00225F
:100DA0007D497E48FFF7DBFD4FF0000C7C4C08E0EE
:100DB000002279497E20FFF715FE0CF1010C0CF0A2
:100DC000FF0CE0786045F3D87348FFF7C2FF207846
:100DD000BDE83040AFE7002180F8001880F8011826
:100DE000C0F80408C0F808081CE4F0B590F8002822
:100DF00000F50066082A1FD00022351D8C5CD0F853
:100E00000438521C5F1C2F6092B21C70FF2AF5D967
:100E100090F8001800F60102491C317090F8011892
:100E2000082901D2491C1170D0F80418B14201D12F
:100E3000C0F804080020F0BD0120F0BD10B500226C
:100E400000F6080CD0F808385C1CCCF800401B7881
:100E50008B54521C92B2FF2AF4D990F8002800F566
:100E60000061521E0A70D0F808288A4201D1C0F8E9
:100E70000808002010BD4A4BD0F80818C0F80C181C
:100E80000A3B90F800285B784FF400611A440A543A
:100E900090F80118082902D2C0F80808A1E5D0F896
:100EA000041801F58071C0F808189AE5D0F80C18FC
:100EB000C0F8081895E50100A0F10100FBD190E50C
:100EC00000214FF6FF720020401C80B29042FBD3FD
:100ED0000020401C80B29042FBD30020401C80B216
:100EE0009042FBD30020401C80B29042FBD30020F4
:100EF000401C80B29042FBD30020401C80B2904244
:100F0000FBD30020401C57E00D0A20526563656941
:100F100076656420616464726573732062797465B8
:100F20007320617265200A00202563002053534915
:100F300044206973202564200A0000000D0A206304
:100F40006F6E74726F6C20627974652069732025EE
:100F5000307800000D0A2050494420697320253064
:100F6000780000000D0A20496E666F726D61746929
:100F70006F6E2062797465732061726520000000D5
:100F80000D0A2025307800000D0A204643532069C1
:100F900073202530780000005C0100204000002014
:100FA0000A00002053544453415400004541525418
:100FB00048200000A086010080B29042A2D3002009
:100FC000401C80B29042FBD30020401C80B2904273
:100FD000FBD30020401C80B29042FBD30020401C79
:100FE00080B29042FBD30020401C80B29042FBD3E1
:100FF0000020401C80B29042FBD30020401C80B2F5
:101000009042FBD30020401C80B29042FBD30020D2
:10101000401C80B29042FBD30020401C80B2904222
:10102000FBD30020401C80B29042FBD30020401C28
:1010300080B29042FBD30020401C80B29042FBD390
:101040000020401C80B29042FBD30020401C80B2A4
:101050009042FBD30020401C80B29042FBD3002082
:10106000401C80B29042FBD30020401C80B29042D2
:10107000FBD30020401C80B29042FBD30020401CD8
:1010800080B29042FBD30020401C80B29042FBD340
:101090000020401C80B29042FBD30020401C80B254
:1010A0009042FBD30020401C80B29042FBD3002032
:1010B000401C80B29042FBD30020401C80B2904282
:1010C000FBD30020401C80B29042FBD30020401C88
:1010D00080B29042FBD30020401C80B29042FBD3F0
:1010E0000020401C80B29042FBD3491C89B22029C9
:1010F000FFF4E9AE75E40EB50121082000F02FFEE3
:101100004FF0010A8DF804A000268DF80660032137
:101110004FF470408DF8051000908DF807A06946D7
:10112000B04800F065FC00F06BF900F051FAFFF7F1
:1011300039FA02A800F07DFA00F0A7F9AA4D0122C1
:1011400040F22551284601F021F8A84F00242846F6
:10115000395D00F0A2FF8021284601F02FF8002819
:10116000F9D0641C052CF2D3FFF7AAFEFFF7A8FE06
:10117000FFF7A6FEFFF7A4FEFFF7A2FE9B4F002499
:1011800014372846395D00F088FF8021284601F099
:1011900015F80028F9D0641C072CF2D300F085F96B
:1011A000924F00247F1D2846395D00F076FF802194
:1011B000284601F003F80028F9D0641C052CF2D36E
:1011C000DFF82882002408F10F08284618F80410D8
:1011D00000F063FF2F468021384600F0EFFF002823
:1011E000F9D0641C052CF0D3DFF80492B04600253A
:1011F000A9F10E060024A6F8028019F8041038465A
:1012000000F04BFF8021384600F0D8FF0028F9D0CD
:10121000641C082CF1D3B088010A384600F03DFF69
:101220008021384600F0CAFF0028F9D0B18838463E
:1012300000F033FF8021384600F0C0FF0028F9D0CD
:101240000021384600F029FF8021384600F0B6FF23
:101250000028F9D00021384600F01FFF80213846D1
:1012600000F0ACFF0028F9D00021384600F015FF4F
:101270008021384600F0A2FF0028F9D0F821384636
:1012800000F00BFF8021384600F098FF0028F9D0CD
:101290000021384600F001FF8021384600F08EFF23
:1012A0000028F9D0FF21384600F0F7FE80213846AB
:1012B00000F084FF0028F9D04E490800A1F1010197
:1012C000FBD1CDF800A04FF480733289F1884A48F1
:1012D000FFF727F800F09AF9B0886D1CF830B0805D
:1012E000F088ADB2401CF08086F800803C2D81D3A0
:1012F0003E4D0024DFF804810A354FF480564FF448
:1013000000594FF4804A4FF4004B295D384600F0F5
:10131000C4FE8021384600F051FF0028F9D0641C3B
:10132000052CF2D32F4D3146284600F0C3FB44462E
:1013300041460800A1F10101FBD14946284600F0D1
:10134000B9FB21460800A1F10101FBD15146284615
:1013500000F0B0FB21460800A1F10101FBD15F467E
:101360005946284600F0A6FB21460800A1F10101DC
:10137000FBD13146284600F09FFB21460800A1F131
:101380000101FBD14946284600F096FB21460800A2
:10139000A1F10101FBD15146284600F08DFB214609
:1013A0000800A1F10101FBD13946284600F084FB79
:1013B0002000A4F10104FBD1B5E710B50A4800F004
:1013C00070FE0B49C2B20E394888431FF82B04D275
:1013D000094B034403F8052C01E001220A70401C6C
:1013E000488010BD000C0240004400401A2A00084A
:1013F0000E000020FFFFCF0004030020FFFF5F006E
:1014000030B5012187B0480400F0C7FC012108462F
:1014100000F0A5FC02208DF804008DF805000024E2
:101420008DF8064001208DF807000420494D0090FA
:101430006946284600F0DCFA0821009169462846F2
:1014400000F0D6FA07220221284600F042FB0722CC
:101450000321284600F03DFB4FF41640ADF80C4048
:101460000290ADF80E40ADF81040ADF814400C20DD
:10147000394CADF8120002A9204600F072FD01219E
:10148000204600F0E4FD07B030BD08B526208DF8F9
:10149000000000208DF801008DF8020001208DF879
:1014A0000300684600F0EFF908BD30B5012187B0B0
:1014B000480400F072FC0121084600F050FC0220B4
:1014C0008DF804008DF8050000248DF806400120F9
:1014D0008DF8070004201F4D00906946284600F053
:1014E00087FA082100916946284600F081FA072210
:1014F0000221284600F0EDFA07220321284600F0D9
:10150000E8FA4FF41650ADF80C400290ADF80E40DA
:10151000ADF81040ADF814400C200F4CADF812009F
:1015200002A9204600F01DFD0121204600F08FFD9C
:10153000A9E7704770B5084D0446C1B2284600F0CF
:10154000ACFD4021284600F039FE0028F9D02046A5
:1015500070BD000000000240004400407047FEE7FC
:10156000FEE7FEE7FEE7704770477047704710B52B
:10157000084C40F22551204600F02AFE002808D0F1
:10158000204600F08EFD0146BDE8104002A001F0AB
:1015900081B810BD004400400A0D555341525420FB
:1015A00048797065727465726D696E616C20496E00
:1015B00074657272757074732052656365697665BF
:1015C000206120776F72643A2025630A0D000000C5
:1015D0001CB500F0A3F80121084600F0C0FB102064
:1015E000009001208DF8040000218DF806100321E1
:1015F0008DF80510484C8DF807006946204600F02C
:10160000F7F91021204600F055FA1CBD10B5424CE8
:101610001021204600F050FAD72000F0DBF800F04F
:10162000F2F80006FBD52046BDE81040102100F07E
:1016300041BA70B50546FFF7E9FF374E1021304635
:1016400000F03AFA9F2000F0C5F8002400F0DBF823
:101650002855641CE4B2042CF8D33046BDE8704031
:10166000102100F027BA70B52B4E04460D4610210C
:10167000304600F021FA842000F0ACF8FF2000F0A2
:10168000A9F8002000F0A6F8E0B200F0A3F8284680
:1016900000F0A0F83046BDE87040102100F00ABA12
:1016A00070B51D4D04461021284600F005FAD420DF
:1016B00000F090F8FF2000F08DF8002000F08AF88C
:1016C000E0B200F087F8FF2000F084F800F09BF80B
:1016D000C4B21021284600F0EDF9204670BD70B567
:1016E0000D4E0C4615461021304600F0E5F98420D9
:1016F00000F070F8FF2000F06DF8002000F06AF8AC
:10170000E0B200F067F8284600F064F83046BDE823
:101710007040102100F0CEB90000024070B50121E8
:1017200088B0084600F01BFB0121080300F03FFBD6
:10173000404E05221146304600F0CBF90522062125
:10174000304600F0C6F905220721304600F0C1F905
:1017500002248DF8184020208DF8194000250590AE
:101760008DF81A508DF81B4005A9304600F040F95D
:101770004020059005A9304600F03AF980200590F8
:1017800005A9304600F034F92B4E304600F052FDEA
:10179000ADF800504FF48270ADF802000120ADF8B2
:1017A00008004002ADF80A003020ADF80C00072018
:1017B000ADF80450ADF81000ADF80640ADF80E508D
:1017C0006946304600F05AFD0121304600F0E2FD46
:1017D00008B070BD70B5184D04460221284600F0CF
:1017E0006EFE0028F9D021462C46284600F03AFE2D
:1017F0000121204600F063FE0028F9D02046BDE814
:10180000704000F02DBE10B50B4C0221204600F0B8
:1018100056FE0028F9D00021204600F023FE0121C9
:10182000204600F04CFE0028F9D02046BDE81040CC
:1018300000F016BE00000240003001400948804719
:1018400009480047FEE7FEE7FEE7FEE7FEE7FEE7A2
:10185000FEE7FEE7FEE7FEE704480549054A064BBA
:101860007047000025250008890100086804002051
:10187000680A0020680600206806002028490843FE
:1018800028490860704770B50F23C2780178012499
:101890004FF0E025EAB1234A1268867802F4E0624C
:1018A000C2F5E062C2F30722D340C2F1040C4278D1
:1018B0001E4002FA0CF21C4B16433201CA54007847
:1018C00000F01F018C40400905EB8000C0F800418A
:1018D00070BD01F01F008440480905EB8000C0F88E
:1018E000804170BD114A114001430E48001F016044
:1018F00070470C4A121D0029116801D0014300E015
:101900008143116070474FF0E0210428086903D03B
:1019100020F004000861704740F00400FAE700007E
:101920000000FA050CED00E000E400E080FFFF1F7E
:10193000704910B5884206D10121084600F041FAED
:10194000002101204FE06C49884206D1012102208C
:1019500000F037FA0021022045E06849884206D1AC
:101960000121042000F02DFA002104203BE064490D
:10197000884206D10121082000F023FA0021082026
:1019800031E06049884206D10121102000F019FAA7
:101990000021102027E05C49884206D10121202047
:1019A00000F00FFA002120201DE05849884206D19E
:1019B0000121402000F005FA0021402013E05449A5
:1019C000884206D10121802000F0FBF9002180200F
:1019D00009E0504988420AD184150121204600F0CF
:1019E000F0F900212046BDE8104000F0EAB910BD32
:1019F000F0B5002201264FF0030C0C6806FA02F342
:101A00001C409C422DD1056853000CFA03F4A543F9
:101A100005600D7907689D403D4305600D79012DF6
:101A200001D0022D12D18568A54385604C79856867
:101A30009C402C438460446806FA02F5AC43446041
:101A400044688D799540ADB22C434460C46855001C
:101A50000CFA05F7BC43C460CC799C40C3681C43B6
:101A6000C460521C102AC8D3F0BD4FF6FF7101604C
:101A70000021017141718171C171704741F480325F
:101A8000C261C161C261C169C0697047024600207C
:101A900012690A4200D001207047006980B2704785
:101AA0000246002052690A4200D001207047406976
:101AB00080B2704701837047418370470AB1018348
:101AC0007047418370474161704742694A404261B3
:101AD00070474B07DB0E9A40C90810B500EB810038
:101AE000016A0F249C40A1430162016A1143016213
:101AF00010BD000000000240000402400008024047
:101B0000000C024000100240001402400018024085
:101B1000001C024000200240EB48016841F0010136
:101B20000160E94A0021083211600268E74B1A405F
:101B30000260031DE64A1A60026822F480220260F5
:101B4000E1480C3001607047DF490022891C0A70AF
:101B50000870704702460020510901290CD0022963
:101B60000CD0D9497431096802F01F020123934057
:101B70000B4200D001207047D349F4E7D2497031BD
:101B8000F1E710B54FF0000C4FF4A0643120FFF7DF
:101B9000E1FF0CF1010CA44501D00028F6D0312062
:101BA000FFF7D8FF002800D0012010BDC64A1168F9
:101BB00021F0F80141EAC00010607047C549086093
:101BC0007047C149002270310A700A70012802D0A2
:101BD000042801D1052008707047BF49086070478C
:101BE00041EA82115A08BD4BDDF800C003EB024206
:101BF0001143014341EA0C60B349091D0860704775
:101C0000B44908667047800140EA0170AE498431EA
:101C100008607047AF4988667047AE49C86470472E
:101C2000A94B08331A68084322F0EC62104318608D
:101C30007047A54B08331A68084322F078421043D6
:101C400018607047A04A0832116821F0030101436F
:101C5000116070479C480830006800F00C00704725
:101C6000994A0832116821F0F00101431160704770
:101C7000954A0832116821F4E05101431160704720
:101C8000914A0832116821F4604141EAC0001060B5
:101C900070478D4B30B508331968914C11F00C0129
:101CA00004D06510042903D0082903D004601DE086
:101CB00005601BE0844A121D1168C1F3805C116845
:101CC000BCF1000F01F03F0102D0B5FBF1F101E0E2
:101CD000B4FBF1F114681268C4F388146143C2F3D1
:101CE0000142521C5200B1FBF2F1016019687D4AB9
:101CF00001F0F0010909545C0168E14041601C6891
:101D000004F4E054A40A145D21FA04F484601B680E
:101D100003F460435B0BD25CD140C16030BDC0F3C3
:101D20000121032908D1684B083319686E4A21F450
:101D3000F81102400A431A60634970310A68C0F31F
:101D40000B0002430A6070476349443908607047DA
:101D500061494039086070476449086070475A4AD1
:101D600030320029116801D0014300E08143116045
:101D70007047554A34320029116801D0014300E010
:101D8000814311607047504A38320029116801D0F0
:101D9000014300E08143116070474B4A4032002903
:101DA000116801D0014300E0814311607047464A49
:101DB00044320029116801D0014300E081431160E1
:101DC0007047414A10320029116801D0014300E0F8
:101DD0008143116070473C4A14320029116801D0D8
:101DE000014300E0814311607047374A18320029EF
:101DF000116801D0014300E0814311607047324A0D
:101E000020320029116801D0014300E081431160B4
:101E100070472D4A24320029116801D0014300E0A7
:101E2000814311607047284A50320029116801D05F
:101E3000014300E0814311607047234A5432002976
:101E4000116801D0014300E08143116070471E4AD0
:101E500058320029116801D0014300E0814311602C
:101E60007047194A60320029116801D0014300E02F
:101E7000814311607047144A64320029116801D00F
:101E8000014300E08143116070470F4A0D32002981
:101E9000117801D0014300E08143117070470A4876
:101EA0007430016841F08071016070470146064A54
:101EB00000200C3212680A4200D00120704702490B
:101EC0000E3108707047000000380240FFFFF6FE38
:101ED0001030002400004742800E47420000FFFF00
:101EE0000024F4001C000020FFFCFF0F5C014742AF
:101EF000CA4910B5884206D101211020FFF789FF99
:101F00000021102028E0C649884202D101214C045A
:101F100010E0C449884202D101218C040AE0C24980
:101F2000884202D10121CC0404E0C04988420AD190
:101F300001210C052046FFF762FF2046BDE8104056
:101F40000021FFF75CBFBA49884209D10121202056
:101F5000FFF75FFF00212020BDE81040FFF759BFC9
:101F600010BD7FB50446008A0D4620F44051E88834
:101F700008432082A18941F20C608143A8882A8904
:101F800010436A890A431043A081A08A20F440715B
:101F9000A8890843A0826846FFF77BFE9F488442D9
:101FA00002D0A348844201D1039800E00298A1899D
:101FB0000904002900EBC00101EB0010296802DAD6
:101FC0004FEA410101E04FEA8101B0FBF1F06422E8
:101FD000B0FBF2F14FEA01114FEA11136FF018054F
:101FE0006B4300EB8300A3891D044FF0320306D539
:101FF00003EBC000B0FBF2F000F0070005E003EBDC
:102000000010B0FBF2F000F00F00084320817FBD0C
:102010004FF41651016000218180C18001810C22A2
:1020200042818181704710B5028A4C8822F4706326
:102030000A8822438C88C9880C4322431A430282AF
:1020400010BD0021018041808180C180704700293E
:10205000818902D041F4005101E021F400518181D5
:102060007047028B02F47F420283028B0A43028391
:1020700070470029818902D041F4004101E0C1F399
:102080000E01818170470029818A02D041F40061EC
:1020900001E021F4006181827047C1F30801818071
:1020A00070478088C0F308007047028A22F00F0250
:1020B0000282028A0A43028270470029818902D083
:1020C00041F0020101E021F0020181817047828923
:1020D00022F40062828182890A4382817047028AE7
:1020E00022F020020282028A0A43028270470029FB
:1020F000018A02D041F4804101E021F48041018253
:102100007047818941F00101818170470029818AEE
:1021100002D041F0080101E021F0080181827047FE
:10212000028BD2B20283028B42EA01210183704703
:102130000029818A02D041F0200101E021F0200134
:10214000818270470029818A02D041F0100101E0AC
:1021500021F0100181827047828A22F0040282827B
:10216000828A0A43828270470029818A02D041F024
:10217000020101E021F0020181827047002A828A77
:1021800001D00A4300E08A4382827047C1F34213C0
:1021900001F01F0C012101FA0CF1012B07D0022BD9
:1021A00007D01430002A026805D00A4304E00C303E
:1021B000F8E71030F6E78A430260704702460020D5
:1021C00012880A4200D001207047C943018070473D
:1021D00030B501F01F0C01250024C1F3421305FAAC
:1021E0000CF2012B0FD0022B0FD0838A4FEA112162
:1021F0000088134205FA01F500EA050001D000B19C
:102200000124204630BD8389F0E7038AEEE70A0AFD
:1022100001219140C9430180704700000010014036
:102220000044004000480040004C00400050004086
:1022300000140140B64910B588420AD18414012126
:102240002046FFF7E6FD2046BDE810400021FFF7DD
:10225000E0BDB049884202D10121041404E0AE4936
:1022600088420AD10121C4132046FFF7C8FD204649
:10227000BDE810400021FFF7C2BD10BD30B5028897
:102280004C8802F441530A88CD8822438C882C4321
:1022900022430C8922434C8922438C892243CC89D6
:1022A00022431A430280828B22F400628283098ACD
:1022B000018230BD70B502220023858B01244FF2CC
:1022C0004006354085830284858B8E68022E35D08A
:1022D0008A8802B10224914A13681B0203D513684D
:1022E00023F4000313608D4A7C3213681268C3F331
:1022F0008813C2F3027C894A121F1268884E02F0CA
:102300003F02B6FBF2F25A43B2FBFCF2CB88B3F5C4
:10231000007F28D06301B2FBF3F202EB82028B68EC
:102320005200B2FBF3F2521D92B20A23B2FBF3F257
:1023300002F00103D21AC2F34F021B02941EFE2CBC
:1023400001D302220023CC881A43144304840A8850
:102350004B881A438B8889890B431A432A4342F4DA
:102360000061818370BD120AD7E70021018041809E
:102370008180C180018141818181C18107210182E8
:1023800070470021018041808180C18002228260EB
:10239000818170470029018802D041F0400101E0AD
:1023A00021F04001018070470029818B02D041F467
:1023B000806101E021F4806181837047028822F40A
:1023C0000062028002880A4302807047B1F5804FA4
:1023D000018803D021F480410180704741F480419D
:1023E000FAE7A1F57E420188FF3A02D041F48071FC
:1023F00001E021F48071018070470029818802D0BA
:1024000041F0040101E021F00401818070470029BE
:10241000818802D041F0100101E021F0100181809B
:10242000704710B5828B00234FF240042240828314
:1024300002220284B0F81CC00A884FF48074B2F5FE
:10244000007F00D002B923464A888C8889892243BC
:1024500019430A4342EA0C0242F40061818310BD31
:1024600080897047818170470029018802D041F43A
:10247000005101E021F4005101807047018841F4CE
:10248000805101807047012901D0008B7047808AFC
:102490007047008A7047002A828801D00A4300E012
:1024A0008A4382807047090901238B40002A828871
:1024B00099B201D00A4300E08A4382807047024605
:1024C000002012890A4200D001207047C9430181CF
:1024D000704710B501F00F03012404FA03F302461C
:1024E000002009098C4091889BB21FFA84FC128954
:1024F00001EA0C011A4202D0002900D0012010BDCF
:1025000001F00F0201219140C94301817047000091
:102510000030014000380040003C004008380240D4
:1025200000127A00514810B5016841F47001016051
:102530004F48016841F0010101604D4A0021083215
:10254000116002684B4B1A400260031D4A4A1A6030
:10255000026822F48022026045480C30016000F0DD
:102560003EF842494FF000608039086010BD30B538
:102570003F4C08342068414B414910F00C0004D016
:102580005D10042803D0082803D00B601DE00D6007
:102590001BE0374A121D1068C0F3805C1068BCF164
:1025A000000F00F03F0002D0B5FBF0F001E0B3FBFC
:1025B000F0F013681268C3F388135843C2F3014262
:1025C000521C5200B0FBF2F0086020682C4AC0F3A5
:1025D0000310121D105C0A68C2400A6030BD244A14
:1025E0000020116841F4803111604FF4A06311683C
:1025F00000F1010011F4003F01D19842F7D11068B9
:10260000800331D51A484030016841F080510160A3
:102610001C48016841F48041016015480830016898
:102620000160016841F400410160016841F4A0517A
:102630000160031F14491960116841F08071116035
:1026400011688901FCD5114A40F2056111600168E9
:1026500021F003010160016841F00201016001689D
:10266000C1F381010229FAD17047000088ED00E032
:1026700000380240FFFFF6FE103000240024F40072
:102680002C0000200070004008544007003C02402D
:10269000704700000FB4044910B503AA029800F077
:1026A00059F910BC5DF814FB1800002070B5054600
:1026B0000C46012A05D02868800600D5EA69002367
:1026C00002E0012305E05B1C934202D2E05C00289B
:1026D000F9D1A869E618C01AA861286A18442862C6
:1026E0002846AFF3008004E0D5E9012114F8010B7E
:1026F0009047B442F8D32846AFF3008070BD000085
:102700002DE9F0410746002510687529394616A4C1
:1027100011D0AFF30080002803DAC0F1000013A449
:1027200007E039688A0701D511A402E0490704D5FA
:1027300010A4012501E0AFF3008000210A2307F176
:10274000240607E0B0FBF3F203FB120030307054B4
:102750001046491C0028F5D12B4622463846BDE8D4
:10276000F04100F085B80000000000002D000000DE
:102770002B0000002000000070B504460D462146E5
:102780001068AFF300802168090502D5104A7A4429
:1027900002E00F4A7A440E32002104F1240307E0DC
:1027A00000F00F064FEA1010965D5E5401F1010132
:1027B0000028F5D103462068000704D5702D02D00B
:1027C00009B1113202232046BDE8704000F050B834
:1027D000A30200002DE9F04104460F460020DFF877
:1027E0008480F84420622046E168884790B3252819
:1027F00006D0D4E901219047206A401C2062F2E70C
:1028000000252046E16888472028064608DB312E4F
:1028100006D208EB060010F8200C08B10543F0E7DB
:10282000A80701D525F00405A6B1A6F14100192895
:1028300002D8203645F400653A46314620462560E8
:10284000FDF7DCFC48B1012805D0FF1D27F0070784
:102850000837C8E703E03F1DC5E73046C9E7206AEF
:10286000BDE8F081770200007047704770477047FD
:102870002DE9F0470D4604469246994600F124089A
:102880000168880604D5E06921F01001216000E0AC
:102890000120A84202DDA0EB050700E00027A169A6
:1028A00007EB050202EB0900A1EB0000A061206824
:1028B000C00602D42046AFF30080002608E0D4E929
:1028C00001211AF806009047206A401C761C2062FD
:1028D0004E45F4DB2068C0060AD52046AFF30080E1
:1028E00006E0D4E9012130209047206A401C206294
:1028F000381EA7F10107F4DC07E0D4E9012118F83C
:1029000005009047206A401C2062281EA5F10105A1
:10291000F3DC2046AFF300802068000602D50220D9
:10292000BDE8F0870120FBE710B5436913B1AFF3B1
:10293000008001E0FFF7BAFE012010BD126800F12F
:1029400024010A7000224A700122EDE711684FF05D
:10295000FF32E9E7074B70B50C467B4400F011F8F5
:102960000546204600F020F810B14FF0FF3070BD52
:10297000284670BDD7EBFFFF01694A1C0261087849
:10298000704700B58FB0CDE90131002105910549AF
:102990007944CDE9031011466846FFF71BFF0FB0DD
:1029A00000BD0000E5FFFFFFC06800F08000704739
:1029B000754600F029F8AE4605006946534620F0FA
:1029C0000700854618B020B5FEF746FFBDE8204059
:1029D0004FF000064FF000074FF000084FF0000BDB
:1029E00021F00701AC46ACE8C009ACE8C009ACE88E
:1029F000C009ACE8C0098D4670470446AFF30080BB
:102A00002046FDF715FC0000004870470404002034
:102A10004FF04070E1EE100A704700560026005655
:102A200000360100560036010356003401005600FE
:102A3000240301AEC83031323334353637383941AA
:102A40004243444546403058003031323334353605
:102A5000373839616263646566403078000400008D
:102A6000080000000000000002000100001000004B
:102A7000902A00080000002040000000C401000867
:102A8000D02A000840000020280A0000E0010008C9
:102A900000000000000000000000000000005600E0
:102AA000320C000A000000000000000000000000DE
:102AB000010203040102030406070809007A030A5D
:102AC00000000000000000000102030406070809DE
:040000050800018965
:00000001FF
