:020000040800F2
:10000000E00700209D010008890200088502000821
:1000100087020008E5010008B9050008000000009B
:100020000000000000000000000000005503000870
:10003000E7010008000000008B020008F50300083B
:10004000B7010008B7010008B7010008B7010008B0
:10005000B7010008B7010008B7010008B7010008A0
:10006000B7010008B7010008B7010008B701000890
:10007000B7010008B7010008B7010008B701000880
:10008000B7010008B7010008B7010008B701000870
:10009000B7010008B7010008B7010008B701000860
:1000A000B7010008B7010008B7010008B701000850
:1000B000B7010008B7010008B7010008B701000840
:1000C000B7010008B7010008B7010008B701000830
:1000D000B7010008B7010008B7010008B701000820
:1000E000B7010008B7010008B7010008B701000810
:1000F000B7010008B7010008B7010008B701000800
:10010000B7010008B7010008B7010008B7010008EF
:10011000B7010008B7010008B7010008B7010008DF
:10012000B7010008B7010008B7010008B7010008CF
:10013000B7010008B7010008B7010008B7010008BF
:10014000B7010008B7010008B7010008B7010008AF
:10015000B7010008B7010008B7010008B70100089F
:10016000B7010008B7010008B7010008B70100088F
:10017000B7010008B7010008B7010008B70100087F
:10018000B7010008B7010008DFF80CD000F018F83C
:1001900000480047D50B0008E007002006488047CC
:1001A00006480047FEE7FEE7FEE7FEE7FEE7FEE75C
:1001B000FEE7FEE7FEE7FEE7F90300088901000815
:1001C000064C074D06E0E06840F0010394E80700A4
:1001D00098471034AC42F6D3FFF7DAFF780E0008E8
:1001E000980E0008FEE77047F0B5002201234FF09B
:1001F000030C00BF0D6803FA02F42540A5422DD17F
:10020000066854000CFA04F5AE4306600E790768E0
:10021000A6403E4306600E79012E01D0022E12D177
:100220008668AE4386604D798668A5403543856013
:10023000456803FA02F6B543456045688E799640F5
:10024000B6B235434560C56856000CFA06F7BD43A3
:10025000C560CD79A540C4682543C560521C102AED
:10026000C8D3F0BD4B07DB0E9A40C90810B500EBB0
:100270008100016A0F249C40A1430162016A11437D
:10028000016210BDFEE7FEE770477047044A00298F
:10029000116801D0014300E0814311607047000004
:1002A00030380240044A0029116801D0014300E0BF
:1002B00081431160704700004038024030B5224B46
:1002C0001968224A11F00C0104D05510042903D0FA
:1002D000082903D002601DE005601BE01A49091FD0
:1002E0000C68C4F3805C0C68BCF1000F04F03F04A0
:1002F00002D0B5FBF4F201E0B2FBF4F20C6809683D
:10030000C4F388146243C1F30141491C4900B2FBA4
:10031000F1F1016019680E4A01F0F0010909545C1D
:100320000168E14041601C6804F4E054A40A145DD3
:1003300021FA04F484601B6803F460435B0BD25C15
:10034000D140C16030BD0000083802400024F400F4
:100350000500002070470000224900200A6842F48E
:1003600080320A604FF4A0630A6800F1010012F4C1
:10037000003F01D19842F7D10868800331D5194870
:100380004030026842F0805202601748026842F42E
:10039000804202601348083002680260026842F43A
:1003A00000420260026842F4A0520260031F0F4A3A
:1003B0001A600A6842F080720A600A689201FCD5ED
:1003C0000B4A40F205611160016821F003010160F0
:1003D000016841F0020101600168C1F38101022955
:1003E000FAD17047003802400070004008484006CB
:1003F000003C0240704700000F4810B5016841F012
:10040000010101600C4A00210832116002680B4BA7
:100410001A400260031D0A4A1A60026822F4802210
:10042000026005480C300160FFF796FF05494FF068
:100430000060086010BD000000380240FFFFF6FEBB
:100440001030002408ED00E00029818902D041F439
:10045000005101E021F400518181704730B5012144
:1004600087B04804FFF71EFF01210846FFF70EFF83
:1004700002208DF804008DF8050000248DF8064058
:1004800001208DF807000420174D0090694628468A
:10049000FFF7AAFE0820009069462846FFF7A4FE51
:1004A000072202212846FFF7DDFE07220321284606
:1004B000FFF7D8FE4FF41650ADF80C400290ADF89F
:1004C0000E40ADF81040ADF814400C20074CADF8CC
:1004D000120002A9204600F013F801212046FFF780
:1004E000B3FF07B030BD00000000024000440040F0
:1004F0000246002012880A4200D001207047000006
:100500007FB50446008A0D4620F44051E888084330
:100510002082A08941F20C618843A9882A8911436D
:100520006A8902431143A181A08A20F44071A889FD
:100530000843A0826846FFF7C1FE1D48844202D0EE
:100540001C48844201D1039800E00298A189090463
:10055000002900EBC00101EB0010296802DA4FEA24
:10056000410101E04FEA8101B0FBF1F06422B0FBF0
:10057000F2F14FEA01114FEA11136FF018056B43C6
:1005800000EB8300A3891D044FF0320306D503EB73
:10059000C000B0FBF2F000F0070005E003EB001034
:1005A000B0FBF2F000F00F00084320817FBD000097
:1005B0000010014000140140FEE702E008C8121FCD
:1005C00008C1002AFAD170477047002001E001C13C
:1005D000121F002AFBD170470349484300E0401E28
:1005E0000028FCD170470000A08601007E21017028
:1005F0000321C173F02101744FF6FF71A0F81411AB
:1006000000210A464318491C89B25A700E29F9D3B1
:1006100000F58B70427002700271704700B502469F
:10062000002104E0505C00F070F9491C89B2B2F876
:1006300092018842F6D8002192F8940101E0491C09
:1006400089B28842FBD800BDF0B501255FF00003F8
:1006500000EA05044FEA4565DC404FEA156502D023
:1006600091F8914103E091F891610124B44381F83C
:100670009141E2B1D1F8986106F00107C6F3401C40
:1006800087EA0C077C4091F894C191F8957104FABF
:100690000CFC47EA0C0781F895714FEA5606C1F841
:1006A00098610CD046F48034C1F8984107E091F885
:1006B000947191F89561BC40264381F89561B1F839
:1006C000926191F895418C5591F89441641CE4B283
:1006D00081F89441082C09D1B1F89241641CA1F829
:1006E0009241002481F8954181F894415B1CDBB272
:1006F000082BADD3F0BDF0B505460E4617460024D5
:1007000008E028193B46407C3246012100F052F8AF
:10071000641CA4B2B5F81801A042F2D8B5F81211C1
:100720003B46C8B20C0A3246012100F043F83B4672
:1007300032460121204600F03DF828783B463246FB
:10074000BDE8F040002100F035B8F0B5174613467B
:1007500005460C460A460078002100F02BF80026DA
:1007600008E0A8193B4640782246012100F022F813
:10077000761CF6B295F81701B042F2D8E87B3B46FA
:100780002246012100F016F8287C3B462246012132
:1007900000F010F804F5C874207820736078607356
:1007A0006088E0812079207460796074A06860615D
:1007B000F0BD00002DE9F04701240025A246A8461F
:1007C00004EA00066406240EEE407DD092F89161A2
:1007D000E3B1D2F8989109F00107C9F3401C87EA08
:1007E0000C077E4092F894C192F8957106FA0CFCC1
:1007F00047EA0C0782F895714FEA5907C2F89871D9
:100800000DD047F48036C2F8986108E092F894C1A0
:1008100092F8957106FA0CF6374382F8957192F8C2
:100820009461761C82F89461B2F8927192F89561A5
:10083000D65592F89061761CF6B282F8906192F8E3
:100840009471082F08D1B2F892717F1CA2F89271AE
:1008500082F8958182F89481052E4FD101293BD0F1
:100860004CE000BFD2F8989109F00107C9F3401C91
:1008700087EA0C077E4092F894C192F8957106FAC7
:100880000CFC47EA0C0782F895714FEA5907C2F849
:1008900098710ED047F48036C2F8986109E000BF25
:1008A00092F894C192F8957106FA0CF6374382F8E3
:1008B000957192F89461761C82F89461B2F8927105
:1008C00092F89561D65500E006E082F8908192F8A2
:1008D0009461082E09D011E092F89171002B2AEA58
:1008E000070682F89161DBD0BCE7B2F89261761C12
:1008F000A2F8926182F8958182F894816D1CADB264
:10090000082DFFF45DAFBDE8F0870020401CC0B2A9
:100910000828FBD3704710B502460846002148F26C
:10092000084402F001034340D80702D084EA530090
:1009300000E05808491C5208C9B20829F1D310BD7B
:10094000B0F89E1100224FF4C87302E04254491CD3
:1009500089B29942FAD300F5C870017B0170417BDE
:100960004170C1894180017C0171417C41714169C3
:1009700081607047F0B5054685B00E4617461C46A7
:100980001B4800F005F91B4800F01AF91A480470DA
:1009900045708670C7700025044606E000221449A1
:1009A0001046FFF751FE6D1CEDB26078A842F5D8F5
:1009B000002506E000220E497E20FFF745FE6D1C53
:1009C000EDB2A078A842F5D80020019002900390E3
:1009D00004900246009009A30AA1064800F076F9A7
:1009E00005B00022BDE8F04001490248FFF7ADBE66
:1009F000340100201800002001000020535444530B
:100A000041540000454152544820000000214FF657
:100A1000FF700022521C92B28242FBD30022521C71
:100A200092B28242FBD30022521C92B28242FBD38A
:100A30000022521C92B28242FBD30022521C92B27C
:100A40008242FBD30022521C92B28242FBD300228C
:100A5000521C92B28242FBD30022521C92B28242BA
:100A6000FBD30022521C92B28242FBD30022521CC2
:100A700092B28242FBD30022521C92B28242FBD33A
:100A80000022521C92B28242FBD30022521C92B22C
:100A90008242FBD30022521C92B28242FBD300223C
:100AA000521C92B28242FBD30022521C92B282426A
:100AB000FBD30022521C92B28242FBD30022521C72
:100AC00092B28242FBD30022521C92B28242FBD3EA
:100AD0000022521C92B28242FBD30022521C92B2DC
:100AE0008242FBD30022521C92B28242FBD30022EC
:100AF000521C92B28242FBD30022521C92B282421A
:100B0000FBD30022521C92B28242FBD30022521C21
:100B100092B28242FBD30022521C92B28242FBD399
:100B20000022521C92B28242FBD30022521C92B28B
:100B30008242FBD30022521C92B28242FBD300229B
:100B4000521C92B28242FBD30022521C92B28242C9
:100B5000FBD30022521C92B28242FBD30022521CD1
:100B600092B28242FBD30022521C92B28242FBD349
:100B70000022521C92B28242FBD30022521C92B23B
:100B80008242FBD3491C89B22029FFF442AF70474F
:100B9000002211464FF4C8738154521C92B29A42FB
:100BA000FAD300F5C8700170417041800171417144
:100BB000816001734173C181017441744161704767
:100BC00010B5044600F042F82046BDE81040FFF79B
:100BD0000DBD000070B5FFF741FC194900204FF42E
:100BE00080720854401C80B29042FAD9002203233C
:100BF00011461046FFF7BEFE1921114800F036F8E5
:100C0000FFF704FF00230F4C0F4D0B2611E0E85CAB
:100C1000A08080212046FFF76BFC0028F9D0B3FBB1
:100C2000F6F006FB103010B90BB1FFF7EFFE5B1CBE
:100C30009BB2B5F892019842E9D2002070BD000045
:100C4000DC02002000440040340100204FF6FF7118
:100C5000A0F8121100210A464318491C89B25A749F
:100C6000FF29F9D9A0F818217047000030B50546D2
:100C70000C46002028551248FFF7E8FF1148FFF7FF
:100C80005FFE224629460E4800F0D0F800220D49AA
:100C90000B48FFF730FD00240B4D06E00022094908
:100CA0007E20FFF7D1FC641CA4B2E878A042F5D8FE
:100CB0000448FFF7B3FC2878BDE83040FFF78CBC50
:100CC0001800002034010020010000202DE9F04729
:100CD0008AB013ACDDF848A0B4E88012002407AD58
:100CE00005AE00BF11F804804FEA480805F80480FB
:100CF00013F804804FEA480806F80480641CE4B244
:100D0000062CEFD34FF0600848EA42018DF822101C
:100D100048EA4A01CCB28DF81A400E2180F817112A
:100D2000DFB190F8161101AB491C80F816110021B3
:100D30007A5C52005A5490F81721491C521CC9B2CF
:100D400080F817210629F3D348EA49018DF80A10E3
:100D500090F81711491C80F81711BCF1000F1ED034
:100D600090F816110DF10C03491C80F816110021A2
:100D70001CF8012052005A5490F81721491C521CAB
:100D8000C9B280F817210629F2D3612141EA49014D
:100D90008DF8121090F81711491C80F817111FB127
:100DA000BCF1000F05D00AE044F001018DF81A10E3
:100DB00005E09DF80A1041F001018DF80A100021AC
:100DC0000A464418AB5C491C521CD2B26370C9B2CB
:100DD000072AF6D300224418B35C491C521CD2B235
:100DE0006370C9B2072AF6D300F003F80AB0BDE871
:100DF000F08730B50446002506E060194078FFF71B
:100E00008AFDA4F814016D1C94F81701B4F81411AC
:100E1000A842F2DCE07BFFF77EFDA4F81401014656
:100E2000207CFFF778FDA4F8140130BD30B4002316
:100E300004E0CC5CC5185B1C6C749BB29342F8D97F
:100E4000521CA0F8182130BCAFF3008030B5054625
:100E5000B0F81411002406E02819407CFFF75BFD70
:100E6000641C0146A4B2B5F81801A042F4D8C843E6
:100E7000A5F8120130BD0000980E00080000002007
:100E800018000000BA050008B00E00081800002085
:100E9000C8070000CA0500080000000000000000AC
:100EA0000001020304010203040607080900000010
:040000050800018965
:00000001FF
