:020000040800F2
:10000000180400209D010008FD040008F904000800
:10001000FB040008EF0300084D0800080000000082
:10002000000000000000000000000000E1050008E2
:100030005904000800000000FF04000881060008C1
:10004000B7010008B7010008B7010008B7010008B0
:10005000B7010008B7010008B7010008B7010008A0
:10006000B7010008B7010008B7010008B701000890
:10007000B7010008B7010008B7010008B701000880
:10008000B7010008B7010008B7010008B701000870
:10009000B7010008B7010008B7010008B701000860
:1000A000B7010008B7010008B7010008B701000850
:1000B000B7010008B7010008B7010008B701000840
:1000C000B7010008B7010008B7010008B701000830
:1000D000B7010008B7010008B7010008B701000820
:1000E000B7010008B7010008B7010008B701000810
:1000F000B7010008B7010008B7010008B701000800
:10010000B7010008B7010008B7010008B7010008EF
:10011000B7010008B7010008B7010008B7010008DF
:10012000B7010008B7010008B7010008B7010008CF
:10013000B7010008B7010008B7010008B7010008BF
:10014000B7010008B7010008B7010008B7010008AF
:10015000B7010008B7010008B7010008B70100089F
:10016000B7010008B7010008B7010008B70100088F
:10017000B7010008B7010008B7010008B70100087F
:10018000B7010008B7010008DFF80CD000F018F83C
:1001900000480047C50800081804002006488047AA
:1001A00006480047FEE7FEE7FEE7FEE7FEE7FEE75C
:1001B000FEE7FEE7FEE7FEE7850600088901000886
:1001C000064C074D06E0E06840F0010394E80700A4
:1001D00098471034AC42F6D3FFF7DAFF280900083D
:1001E0004809000870B59CB001212E4800F088F93C
:1001F0000121880200F09CF94FF0806000902A48AD
:1002000001902A4802A90024012531C1E802CDE964
:10021000064080000890401109900AA90594400208
:1002200031C1234E0D94694630460E9400F0EAF831
:100230000121304600F0DCF80420199003208DF8ED
:1002400068008DF86B4019A91A4800F007F9159459
:100250001694179415A8189400F038F80F948DF898
:10026000404011941394104C8DF841504C3C8DF843
:1002700050500FA9204600F055F8002301220C2110
:10028000204600F075F80121204600F041F80121D8
:10029000204600F033F80121204600F00DF81CB094
:1002A00070BD0000040040004C220140000000200E
:1002B00010640240000802400029816802D041F029
:1002C000010101E021F0010181607047094B10B587
:1002D0001A68094902EA0102D0E9001441EA04015E
:1002E000D0E9024044EA000441EA040141EA020183
:1002F000196010BD04230140E030FCFF0029816833
:1003000002D041F4807101E021F480718160704776
:100310000029816802D041F4007101E021F40071EC
:100320008160704730B542680F4B0C791A400B68FA
:1003300042EA04221343436082680C4B4D791A4011
:10034000D1E9034323438C6844EA45042343134320
:100350008360C26A097D22F47002491EC9B242EA72
:100360000151C16230BD0000FFFEFFFCFDF7FFC080
:1003700070B5072509290AD9C468A1F10A0606EB58
:100380004606B540AC43B3401C43C46007E0046973
:1003900001EB4106B540AC43B3401C4304611F234D
:1003A000072A09D2446B521E02EB820293409C43FF
:1003B00091400C43446370BD0D2A09D2046BD21FD7
:1003C00002EB820293409C4391400C43046370BD56
:1003D000C46A0D3A02EB820293409C4391400C4365
:1003E000C46270BD816841F0804181607047FEE762
:1003F0000029016802D041F0010101E021F0010172
:100400000160704730B50368124ACC6813400A682F
:100410002243D1E905452C432243CC6922430C6A8F
:1004200022434C6A22438C6A22434C6B22438C6BDE
:1004300022431A430260426922F00703D1E90B24E8
:1004400022431A4342610A6942604A6882608968AD
:10045000C16030BD3F801CF070470000F0B5002245
:1004600001234FF0030C00BF0D6803FA02F425408E
:10047000A5422DD1066854000CFA04F5AE4306607F
:100480000E790768A6403E4306600E79012E01D022
:10049000022E12D18668AE4386604D798668A540EB
:1004A00035438560456803FA02F6B5434560456803
:1004B0008E799640B6B235434560C56856000CFA51
:1004C00006F7BD43C560CD79A540C4682543C56026
:1004D000521C102AC8D3F0BD4B07DB0E9A40C90846
:1004E00010B500EB8100016A0F249C40A14301621A
:1004F000016A1143016210BDFEE7FEE770477047D5
:10050000044A0029116801D0014300E081431160D1
:100510007047000030380240044A0029116801D0B9
:10052000014300E081431160704700004038024001
:10053000044A0029116801D0014300E081431160A1
:10054000704700004438024030B5224B1968224AF7
:1005500011F00C0104D05510042903D0082903D050
:1005600002601DE005601BE01A49091F0C68C4F316
:10057000805C0C68BCF1000F04F03F0402D0B5FBB6
:10058000F4F201E0B2FBF4F20C680968C4F38814D9
:100590006243C1F30141491C4900B2FBF1F1016022
:1005A00019680E4A01F0F0010909545C0168E14044
:1005B00041601C6804F4E054A40A145D21FA04F4B8
:1005C00084601B6803F460435B0BD25CD140C16064
:1005D00030BD0000083802400024F400080000206C
:1005E00070470000224900200A6842F480320A6005
:1005F0004FF4A0630A6800F1010012F4003F01D13A
:100600009842F7D10868800331D519484030026814
:1006100042F0805202601748026842F48042026051
:100620001348083002680260026842F40042026027
:10063000026842F4A0520260031F0F4A1A600A685F
:1006400042F080720A600A689201FCD50B4A40F2BF
:1006500005611160016821F003010160016841F04A
:10066000020101600168C1F381010229FAD17047DA
:10067000003802400070004008484006003C02403C
:10068000704700000F4810B5016841F0010101609A
:100690000C4A00210832116002680B4B1A400260BC
:1006A000031D0A4A1A60026822F48022026005488B
:1006B0000C300160FFF796FF05494FF000600860BD
:1006C00010BD000000380240FFFFF6FE103000248D
:1006D00008ED00E00029818902D041F4005101E0D9
:1006E00021F400518181704730B5012187B0480461
:1006F000FFF712FF01210846FFF702FF02208DF8E5
:1007000004008DF8050000248DF8064001208DF8C6
:1007100007000420174D009069462846FFF79EFE0B
:100720000820009069462846FFF798FE072202211C
:100730002846FFF7D1FE072203212846FFF7CCFE0B
:100740004FF41650ADF80C400290ADF80E40ADF8E5
:100750001040ADF814400C20074CADF8120002A96F
:10076000204600F013F801212046FFF7B3FF07B041
:1007700030BD00000000024000440040024600205E
:1007800012880A4200D00120704700007FB504465D
:10079000008A0D4620F44051E88808432082A08951
:1007A00041F20C618843A9882A8911436A8902436E
:1007B0001143A181A08A20F44071A8890843A08236
:1007C0006846FFF7C1FE1D48844202D01C4884429F
:1007D00001D1039800E00298A1890904002900EBE7
:1007E000C00101EB0010296802DA4FEA410101E083
:1007F0004FEA8101B0FBF1F06422B0FBF2F14FEA65
:1008000001114FEA11136FF018056B4300EB8300E1
:10081000A3891D044FF0320306D503EBC000B0FBE3
:10082000F2F000F0070005E003EB0010B0FBF2F07F
:1008300000F00F00084320817FBD00000010014040
:1008400000140140C1F3080181807047FEE702E017
:1008500008C8121F08C1002AFAD17047704700204B
:1008600001E001C1121F002AFBD1704700214FF6A1
:10087000FF700022521C92B28242FBD30022521C13
:1008800092B28242FBD30022521C92B28242FBD32C
:100890000022521C92B28242FBD30022521C92B21E
:1008A0008242FBD30022521C92B28242FBD300222E
:1008B000521C92B28242FBD3491C89B22029D8D360
:1008C00070470000FFF710FFFFF78CFC1348FFF79D
:1008D00089FD134D134C40F6FF76288840F6E4411D
:1008E0004843B0FBF6F06860288800212046FFF7F7
:1008F000A9FF40212046FFF741FF0028F9D0686892
:10090000C1B22046FFF79EFF40212046FFF736FF89
:100910000028F9D0FFF7AAFFDFE70000002201401E
:1009200000000020004400404809000800000020AA
:10093000180000004E080008600900081800002098
:10094000000400005E080008000000000000000035
:100950000000000001020304010203040607080965
:040000050800018965
:00000001FF
