:020000040800F2
:10000000680B0020E1190008011700080317000819
:10001000051700080717000809170008000000006E
:100020000000000000000000000000000B170008A6
:100030000D170008000000000F1700081117000836
:10004000FB190008FB190008FB190008FB19000840
:10005000FB190008FB190008FB190008FB19000830
:10006000FB190008FB190008FB190008FB19000820
:10007000FB190008FB190008FB190008FB19000810
:10008000FB190008FB190008FB190008FB19000800
:10009000FB190008FB190008FB190008FB190008F0
:1000A000FB190008FB190008FB190008FB190008E0
:1000B000FB190008FB190008FB190008FB190008D0
:1000C000FB190008FB190008FB190008FB190008C0
:1000D000FB19000813170008D3140008FB190008C7
:1000E000FB190008FB190008FB190008FB190008A0
:1000F000FB190008FB190008FB190008FB19000890
:10010000FB190008FB190008FB190008FB1900087F
:10011000FB190008FB190008FB190008FB1900086F
:10012000FB190008FB190008FB190008FB1900085F
:10013000FB190008FB190008FB190008FB1900084F
:10014000FB190008FB190008FB190008FB1900083F
:10015000FB190008FB190008FB190008FB1900082F
:10016000FB190008FB190008FB190008FB1900081F
:10017000FB190008FB190008FB190008FB1900080F
:10018000FB190008FB19000800F002F800F047F81E
:100190000AA090E8000C82448344AAF10107DA45E2
:1001A00001D100F03CF8AFF2090EBAE80F0013F0ED
:1001B000010F18BFFB1A43F0010318476C2A000017
:1001C0008C2A0000103A24BF78C878C1FAD85207A8
:1001D00024BF30C830C144BF04680C6070470000C1
:1001E0000023002400250026103A28BF78C1FBD840
:1001F000520728BF30C148BF0B607047642902F026
:100200005183782902F08A83632902F069840020EF
:1002100070471FB502F0CEFC1FBD10B510BD02F037
:1002200099FC1146FFF7F5FF00F065FF02F0B7FCFF
:1002300003B4FFF7F2FF03BC01F049FA70B5FA4DC1
:100240001021284601F00AFDD72001F095FB01F0AE
:10025000ACFB04461021284601F0FEFCE0B270BD64
:100260002DE9F041DFF8C08305460C4617461E46CF
:100270001021404601F0F2FC012E02D0022E02D0E5
:1002800004E0D42000E0D62001F076FB002001F04D
:1002900073FBC4F3072001F06FFBE0B201F06CFBCD
:1002A000002001F069FB002405E001F07EFB641CE6
:1002B00005F8010BE4B2BC42F7D34046BDE8F0417B
:1002C000102101F0C9BC2DE9F041DFF85C8306463E
:1002D0000C4617461D461021404601F0BFFC012D7B
:1002E00002D0022D02D004E0842000E0872001F03B
:1002F00043FBFF2001F040FBC4F3072001F03CFB6F
:10030000E0B201F039FB002403E0305D01F034FB82
:10031000641CBC42F9D34046BDE8F041102101F015
:100320009BBC2DE9F047DFF8009305460C461646C6
:10033000984610214846089F01F090FC012F02D0FA
:10034000022F02D004E0822000E0852001F014FB9F
:10035000C4F3C71001F010FB6006C6F3002141EAA8
:10036000106001F009FBF0B201F006FB002404E08C
:10037000287801F001FB6D1C641C4445F8D3484605
:10038000BDE8F047102101F067BC70B5A64E0546E8
:100390000C461021304601F061FC012C02D0022CE9
:1003A00002D004E0832000E0862001F0E5FAC5F3E6
:1003B000C71001F0E1FA6806000E01F0DDFA002036
:1003C00001F0DAFA3046BDE87040102101F044BC7B
:1003D0002DE9F041DFF8508205460C4616461F46CF
:1003E0001021404601F03AFCD22001F0C5FAC4F3D6
:1003F000C71001F0C1FA6006C6F3002141EA10609F
:1004000001F0BAFAF0B201F0B7FA0024002001F0CE
:10041000B3FA641C042CF9D3002404E001F0C5FAFB
:1004200005F8010B641CBC42F8D34046BDE8F0411E
:10043000102101F011BC70B57B4E05460C46102111
:10044000304601F00BFC012C02D0022C02D004E05B
:10045000532000E0552001F08FFAC5F3C71001F0DA
:100460008BFA6806000E01F087FA002001F084FA8A
:100470003046BDE87040102101F0EEBB70B56A4D0A
:1004800004461021284601F0E9FBC4F3C71001F02F
:1004900073FA6006000E01F06FFA002001F06CFAAA
:1004A0002846BDE87040102101F0D6BB70B55E4D06
:1004B00004461021284601F0D1FBC4F3C70001F027
:1004C0005BFA6007000E01F057FA002001F054FAC1
:1004D0002846BDE87040102101F0BEBB70B5524DFA
:1004E00004461021284601F0B9FBA006000E01F0D9
:1004F00043FA002001F040FA002001F03DFA2846BE
:10050000BDE87040102101F0A7BB08B5012300939E
:100510004FF40473FFF705FF08BD4FF4047357E76A
:1005200070B5414E05461021304601F097FB322050
:1005300001F022FA002001F01FFA002001F01CFA5D
:10054000002001F019FA002401F02FFA2855641C4C
:10055000E4B2082CF8D33046BDE87040102101F019
:100560007BBB70B5304E05461021304601F076FB5E
:10057000352001F001FA002001F0FEF9002001F021
:10058000FBF9002001F0F8F9002401F00EFA2855DB
:10059000641CE4B2082CF8D33046BDE8704010214A
:1005A00001F05ABB70B5204D1021284601F056FBD2
:1005B000D72001F0E1F901F0F8F9C4B22006FAD52C
:1005C0001021284601F048FB204670BD10B50346B7
:1005D000002248F2084403F001004840C10702D05D
:1005E00084EA500100E04108521C5B08D2B2082A9C
:1005F000F1D3084610BD7E2101700321C173F021A3
:1006000001744FF6FF71A0F8141100210A46431837
:10061000491C89B25A700E29F9D300F58B704270CB
:100620000270027170470000000002404FF6FF7137
:10063000A0F8121100210A464318491C89B25A74C5
:10064000FF29F9D9A0F81821ECE700B58446FFF797
:10065000EDFF60465DF804EBCDE700210A464FF45C
:10066000C8734254491C89B29942FAD300F5C87044
:100670000270427042800271427182600273427362
:10068000C281027442744261CCE710B504464FF057
:10069000000C08E004EB0C004078FFF797FFA4F88B
:1006A00014010CF1010C94F81701B4F81411604511
:1006B000F0DCE07BFFF78AFFA4F81401227C0146FE
:1006C0001046FFF783FFA4F8140110BD2DE9F04791
:1006D00088B00024DDE91159DDF840A0139E0DF12A
:1006E000100802AF11F804C04FEA4C0C08F804C01F
:1006F00013F804C04FEA4C0C07F804C0641CE4B2C1
:10070000062CEFD34FF0600C4CEA42018DF8161026
:100710004CEA4A01CCB28DF80E400E2180F8171138
:10072000DDB190F816116B46491C80F816110021B6
:100730006A5C52005A5490F81721491C521CC9B2E5
:1007400080F817210629F3D34CEA49018DF80610E9
:1007500090F81711491C80F81711E6B190F816119E
:1007600006AB491C80F816110021725C52005A54E5
:1007700090F81721491C521CC9B280F8172106298C
:10078000F3D3612141EA49018DF81E1090F8171149
:10079000491C80F817110DB12EB10AE044F0010197
:1007A0008DF80E1005E09DF8061041F001018DF85E
:1007B000061000210A46441818F80230491C521C41
:1007C000D2B26370C9B2072AF5D300224418BB5CC9
:1007D000491C521CD2B26370C9B2072AF6D3FFF784
:1007E00054FF08B0BDE8F08710B50446B0F8141106
:1007F0004FF0000C09E004EB0C00407CFFF7E6FE34
:100800000CF1010C01461FFA8CFCB4F8180160458C
:10081000F1D8C843A4F8120110BD30B4002304E09D
:10082000CC5CC5185B1C6C749BB29342F8D9521C0B
:10083000A0F8182130BCD7E7F0B501240023A64664
:100840001F4604EA00056406240EDD4028D092F815
:10085000916192F8945192F895C1AE404CEA060C21
:1008600082F895C16D1C82F89451B2F8925102F849
:1008700005C092F890516D1CEDB282F8905192F83B
:100880009461082E08D1B2F89261761CA2F89261A8
:1008900082F8957182F89471052D27D1012925D10F
:1008A00002F5C87256782EEA06055570167992F848
:1008B00005C005FA06F54CEA050C82F805C006F1FC
:1008C000010616715588A2F5C87202F805C082F8B3
:1008D000907192F89451082D08D1B2F892516D1C84
:1008E000A2F8925182F8957182F894715B1C9BB2C8
:1008F000082BA6D3F0BDF0B51746134606460C46A6
:100900000A4600780021FFF797FF002508E07019DC
:100910003B46407822460121FFF78EFF6D1CEDB269
:1009200096F81701A842F2D8F07B3B4622460121F7
:10093000FFF782FF307C3B4622460121FFF77CFF18
:1009400004F5C87420782073607860736088E08153
:100950002079207460796074A0686061F0BDF0B5A2
:1009600005460E461746002408E028193B46407C01
:1009700032460121FFF760FF641CA4B2B5F81801EC
:10098000A042F2D8B5F812113B46C8B20C0A324662
:100990000121FFF751FF3B46324601212046FFF778
:1009A0004BFF28783B463246BDE8F040002143E744
:1009B000B0F89E1100224FF4C87302E04254491C63
:1009C00089B29942FAD300F5C870017B0170417B6E
:1009D0004170C1894180017C0171417C4171416953
:1009E00081601FE670B50124002200EA04034FEA8B
:1009F0004464D3404FEA146402D091F8913103E08B
:100A000091F891510123AB4301F5C8714B700E79F8
:100A10004D7903FA06F345EA03054D714B88A1F5BC
:100A2000C871CD5491F8943103F10103DBB281F820
:100A30009431082B09D1B1F892315B1CA1F89231A5
:100A4000002381F8953181F89431521CD2B2082AE2
:100A5000CBD370BD00210A464254491C89B20E29ED
:100A6000FAD301218173C273027400214318491C17
:100A700089B25A74FF29F9D900F588704FF6FF71D1
:100A8000427041800271CDE500210170417081709A
:100A9000C17080F81A11C0F81C1180F8201180F87C
:100AA0002111BFE510B40022828011464FF48A73F1
:100AB0004418491C89B2A2719942F9D310BCE3E7EA
:100AC00070B54FF6FF7605463146002404E0FFF787
:100AD0007DFD641C0146A4B2A888801EA04205EBDF
:100AE00004008079F3DC641CA2B22A447140CBB2CA
:100AF0009279090A984203D18A4201D1012070BD3E
:100B0000002070BD2DE9F04104460E460846FFF76F
:100B1000D7FF002866D04FF001080025FAA001F0A9
:100B20008BFE00277019807941086155FEA001F005
:100B300083FE6D1C7F1CFFB2EDB2062FF2D3771936
:100B4000B879C0F343016155F8A001F075FEB8799A
:100B500005F10105C007EDB205D1A07B401CA073D3
:100B6000B8F1000FDDD170196D1C8179E173EDB220
:100B7000F2A001F061FE70196D1C81792174EDB253
:100B8000F4A001F059FEF7A001F056FE002711E095
:100B90007019E11980797F1C4874FFB2E019017C5B
:100BA000F7A001F049FE94F81101401C6D1C84F877
:100BB0001101EDB2B088C01EA842E9DC6D1CE8B29C
:100BC0003118401CC0B289793044A4F812118079E0
:100BD00041EA0021A4F81211EBA001F02DFE002043
:100BE000B0800120BDE8F0812DE9F041030092F8CA
:100BF0001A010D4614464FF0010601D126EA000005
:100C0000E178002719B194F8201105290AD080B1A4
:100C1000207840F08000207094F82001401C84F877
:100C200020010CE00028F3D184F8207182F81A31F9
:100C3000D8E7207800F07F00207084F8207184F8D5
:100C40001A31A07860B36078401CC0B26070082888
:100C500026D1677020787E2801D0E67019E0E77011
:100C6000A0881638FE281FD211462846FFF74AFFF3
:100C700028B185F814612046BDE8F04104E785F805
:100C800014712046FFF70EFF2846FFF7E3FEE078D9
:100C900030B1A288A01D21781154A088401CA080EA
:100CA00020787E2803D005E0A770A78001E0A07817
:100CB00000B9A67020784008207093E7F0B506468A
:100CC00085B00F4615461C46B348FFF7C6FCB3482F
:100CD000FFF7BBFCB248047046708770C5700024F3
:100CE000054606E00022AC491046FFF77BFE641C77
:100CF000E4B26878A042F5D8002406E00022A649B4
:100D00007E20FFF76FFE641CE4B2A878A042F5D8FD
:100D10000020019002900390049002460090A1A34D
:100D2000A2A19E48FFF7D2FC05B00022BDE8F0402A
:100D300099499A48DFE59F49484300E0401E002852
:100D4000FCD16FE46EE40020401CC0B20828FBD345
:100D500068E400B50246002104E0505CFFF7F3FFB1
:100D6000491C89B2B2F892018842F6D8002192F863
:100D7000940101E0491C89B28842FBD800BD30B51E
:100D80000C460021054601558448FFF74FFC824878
:100D9000FFF70EFE224629468048FFF73EFD00225F
:100DA0007D497E48FFF7DBFD4FF0000C7C4C08E0EE
:100DB000002279497E20FFF715FE0CF1010C0CF0A2
:100DC000FF0CE0786045F3D87348FFF7C2FF207846
:100DD000BDE83040AFE7002180F8001880F8011826
:100DE000C0F80408C0F808081CE4F0B590F8002822
:100DF00000F50066082A1FD00022351D8C5CD0F853
:100E00000438521C5F1C2F6092B21C70FF2AF5D967
:100E100090F8001800F60102491C317090F8011892
:100E2000082901D2491C1170D0F80418B14201D12F
:100E3000C0F804080020F0BD0120F0BD10B500226C
:100E400000F6080CD0F808385C1CCCF800401B7881
:100E50008B54521C92B2FF2AF4D990F8002800F566
:100E60000061521E0A70D0F808288A4201D1C0F8E9
:100E70000808002010BD4A4BD0F80818C0F80C181C
:100E80000A3B90F800285B784FF400611A440A543A
:100E900090F80118082902D2C0F80808A1E5D0F896
:100EA000041801F58071C0F808189AE5D0F80C18FC
:100EB000C0F8081895E50100A0F10100FBD190E50C
:100EC00000214FF6FF720020401C80B29042FBD3FD
:100ED0000020401C80B29042FBD30020401C80B216
:100EE0009042FBD30020401C80B29042FBD30020F4
:100EF000401C80B29042FBD30020401C80B2904244
:100F0000FBD30020401C57E00D0A20526563656941
:100F100076656420616464726573732062797465B8
:100F20007320617265200A00202563002053534915
:100F300044206973202564200A0000000D0A206304
:100F40006F6E74726F6C20627974652069732025EE
:100F5000307800000D0A2050494420697320253064
:100F6000780000000D0A20496E666F726D61746929
:100F70006F6E2062797465732061726520000000D5
:100F80000D0A2025307800000D0A204643532069C1
:100F900073202530780000005C0100204000002014
:100FA0000A00002053544453415400004541525418
:100FB00048200000A086010080B29042A2D3002009
:100FC000401C80B29042FBD30020401C80B2904273
:100FD000FBD30020401C80B29042FBD30020401C79
:100FE00080B29042FBD30020401C80B29042FBD3E1
:100FF0000020401C80B29042FBD30020401C80B2F5
:101000009042FBD30020401C80B29042FBD30020D2
:10101000401C80B29042FBD30020401C80B2904222
:10102000FBD30020401C80B29042FBD30020401C28
:1010300080B29042FBD30020401C80B29042FBD390
:101040000020401C80B29042FBD30020401C80B2A4
:101050009042FBD30020401C80B29042FBD3002082
:10106000401C80B29042FBD30020401C80B29042D2
:10107000FBD30020401C80B29042FBD30020401CD8
:1010800080B29042FBD30020401C80B29042FBD340
:101090000020401C80B29042FBD30020401C80B254
:1010A0009042FBD30020401C80B29042FBD3002032
:1010B000401C80B29042FBD30020401C80B2904282
:1010C000FBD30020401C80B29042FBD30020401C88
:1010D00080B29042FBD30020401C80B29042FBD3F0
:1010E0000020401C80B29042FBD3491C89B22029C9
:1010F000FFF4E9AE75E40EB50121082000F001FF10
:101100004FF001098DF8049000278DF80670032137
:101110004FF470408DF8051000908DF807906946E7
:10112000F44800F037FD00F0F5F900F0C0FAF24D98
:1011300040F2255401222146284601F0F9F800F03A
:1011400019FB01222146284601F0F2F8FFF72AFA9E
:1011500002A800F040FBE94EE94C37703078215C82
:10116000284601F06CF88021284601F0F9F80028A3
:10117000F9D03078401CC0B230700528EED3FFF7AC
:101180009FFEFFF79DFEFFF79BFEFFF799FEFFF71F
:1011900097FEDFF86C83377008F124083178284611
:1011A00018F8011001F04BF88021284601F0D8F81A
:1011B0000028F9D03078401CC0B230700928EDD337
:1011C00037703078215C284601F039F880212846B4
:1011D00001F0C6F80028F9D03078401CC0B2307059
:1011E0000528EED3FFF76CFEFFF76AFEFFF768FEF7
:1011F000FFF766FEFFF764FEC14C37701434307899
:10120000215C284601F01BF88021284601F0A8F84F
:101210000028F9D03078401CC0B230700728EED3D7
:1012200000F001FAFFF74CFEB54C3770641D3078C2
:10123000215C284601F003F88021284601F090F84F
:101240000028F9D03078401CC0B230700528EED3A9
:10125000AB4C37700F343078215C284600F0EFFF3C
:101260008021284601F07CF80028F9D03078401C15
:10127000C0B230700528EED34FF480519D4800F085
:10128000EBFCFFF71DFEDFF874B200240BF10E0B30
:10129000B8464FF48C7AA6F80280404686F8008063
:1012A0005F46C0B2395C284600F0C9FF802128465D
:1012B00001F056F80028F9D03078401CC0B23070E8
:1012C0000828EED3B088010A284600F0B8FF802134
:1012D000284601F045F80028F9D03746B18828465D
:1012E00000F0ADFF8021284601F03AF80028F9D03F
:1012F0000021284600F0A3FF8021284601F030F8A5
:101300000028F9D00021284600F099FF80212846C6
:1013100001F026F80028F9D00021284600F08FFFC0
:101320008021284601F01CF80028F9D0F821284631
:1013300000F085FF8021284601F012F80028F9D03E
:101340000021284600F07BFF8021284601F008F8A4
:101350000028F9D0FF21284600F071FF802128469F
:1013600000F0FEFF0028F9D06FF07F410800A1F1E6
:101370000101FBD1CDF80090F8233A89F988614842
:10138000FEF7CFFF00F014FAB888641CF830B8807C
:10139000F888A4B2401CF8805445FFF47CAFFFF7F6
:1013A0008FFD444686F80080DFF8548108F10A0872
:1013B0003178284618F8011000F041FF80212846B6
:1013C00000F0CEFF0028F9D03078401CC0B2307059
:1013D0000528EDD300F0E3F8F48034810025DFF830
:1013E0002881DFF828914FF4005B4FF4804A00F029
:1013F000DFF9F8233289F1884348FEF7E9FF00243A
:101400004F4618F80410384600F019FF802138467E
:1014100000F0A6FF0028F9D0641CA4B2F82CF0D389
:10142000F0886D1C401CADB2F080B5F58C7FDED32A
:10143000304DDFF8DC804FF480563146284600F00E
:101440000BFC444641460800A1F10101FBD1D946FD
:101450005946284600F000FC21460800A1F1010190
:10146000FBD15146284600F0F7FB21460800A1F1C8
:101470000101FBD14FF400473946284600F0ECFB50
:1014800021460800A1F10101FBD13146284600F0B8
:10149000E5FB21460800A1F10101FBD149462846A0
:1014A00000F0DCFB21460800A1F10101FBD151460F
:1014B000284600F0D3FB21460800A1F10101FBD131
:1014C0003946284600F0CAFB2000A4F10104FBD1F4
:1014D000B3E710B5084800F0B6FE084AC1B250881C
:1014E000431FF82B03D2074B034403F8051C401C91
:1014F000508010BD000C024000440040000000205D
:10150000C02B000804030020040400200048004011
:10151000FFFF5F0030B5012187B0480400F00FFDE8
:101520000121084600F0EDFC02208DF804008DF842
:10153000050000248DF8064001208DF807000420E6
:101540006B4D00906946284600F024FB082100916D
:101550006946284600F01EFB07220221284600F0BB
:101560008AFB07220321284600F085FB4FF4164032
:10157000ADF80C400290ADF80E40ADF81040ADF85B
:1015800014400C205B4CADF8120002A9204600F07C
:10159000BAFD0121204600F02CFE07B030BD30B569
:1015A000012187B0880400F0CAFC0121042000F06A
:1015B000A8FC02208DF804008DF8050000248DF8A9
:1015C000064001208DF8070080024B4D00906946CF
:1015D000284600F0DFFAE91400916946284600F039
:1015E000D9FA07220A21284600F045FB07220B21E1
:1015F000284600F040FB4FF41650ADF80C40029026
:10160000ADF80E40ADF81040ADF814400C203B4C46
:10161000ADF8120002A9204600F075FD0121204618
:1016200000F0E7FDB9E730B5012187B0480400F0CC
:1016300086FC0121084600F064FC02208DF80400BD
:101640008DF8050000248DF8064001208DF8070074
:101650000420274D00906946284600F09BFA082197
:1016600000916946284600F095FA07220221284693
:1016700000F001FB07220321284600F0FCFA4FF49A
:101680001650ADF80C400290ADF80E40ADF8104089
:10169000ADF814400C20174CADF8120002A92046FA
:1016A00000F031FD0121204600F0A3FD75E708B5EB
:1016B00026208DF8000000208DF801008DF8020032
:1016C00001208DF80300684600F0AFF908BD7047AF
:1016D00070B5084D0446C1B2284600F0B0FD402167
:1016E000284600F03DFE0028F9D0204670BD0000DD
:1016F0000000024000440040000802400048004052
:101700007047FEE7FEE7FEE7FEE770477047704769
:10171000704710B5084C40F22551204600F02AFED3
:10172000002808D0204600F08EFD0146BDE810409C
:1017300002A001F081B810BD004400400A0D5553CD
:101740004152542048797065727465726D696E619A
:101750006C20496E74657272757074732052656383
:1017600065697665206120776F72643A2025630A87
:101770000D0000001CB500F0A3F80121084600F0A0
:10178000C0FB1020009001208DF8040000218DF88E
:10179000061003218DF80510484C8DF807006946A6
:1017A000204600F0F7F91021204600F055FA1CBD44
:1017B00010B5424C1021204600F050FAD72000F01E
:1017C000DBF800F0F2F80006FBD52046BDE810403B
:1017D000102100F041BA70B50546FFF7E9FF374E1A
:1017E0001021304600F03AFA9F2000F0C5F800249E
:1017F00000F0DBF82855641CE4B2042CF8D3304622
:10180000BDE87040102100F027BA70B52B4E044699
:101810000D461021304600F021FA842000F0ACF88B
:10182000FF2000F0A9F8002000F0A6F8E0B200F0D8
:10183000A3F8284600F0A0F83046BDE8704010211B
:1018400000F00ABA70B51D4D04461021284600F07C
:1018500005FAD42000F090F8FF2000F08DF8002069
:1018600000F08AF8E0B200F087F8FF2000F084F87A
:1018700000F09BF8C4B21021284600F0EDF9204694
:1018800070BD70B50D4E0C4615461021304600F067
:10189000E5F9842000F070F8FF2000F06DF80020DA
:1018A00000F06AF8E0B200F067F8284600F064F84B
:1018B0003046BDE87040102100F0CEB90000024073
:1018C00070B5012188B0084600F01BFB0121080318
:1018D00000F03FFB404E05221146304600F0CBF9A8
:1018E00005220621304600F0C6F9052207213046C0
:1018F00000F0C1F902248DF8184020208DF819401D
:10190000002505908DF81A508DF81B4005A930462A
:1019100000F040F94020059005A9304600F03AF962
:101920008020059005A9304600F034F92B4E304652
:1019300000F052FDADF800504FF48270ADF8020097
:101940000120ADF808004002ADF80A003020ADF8E3
:101950000C000720ADF80450ADF81000ADF80640BB
:10196000ADF80E506946304600F05AFD0121304670
:1019700000F0E2FD08B070BD70B5184D04460221BC
:10198000284600F06EFE0028F9D021462C46284655
:1019900000F03AFE0121204600F063FE0028F9D055
:1019A0002046BDE8704000F02DBE10B50B4C022162
:1019B000204600F056FE0028F9D00021204600F015
:1019C00023FE0121204600F04CFE0028F9D02046DD
:1019D000BDE8104000F016BE00000240003001409B
:1019E0000948804709480047FEE7FEE7FEE7FEE7B3
:1019F000FEE7FEE7FEE7FEE7FEE7FEE704480549EF
:101A0000054A064B70470000C926000889010008F6
:101A100068050020680B0020680700206807002088
:101A20002849084328490860704770B50F23C278D9
:101A3000017801244FF0E025EAB1234A1268867844
:101A400002F4E062C2F5E062C2F30722D340C2F1C1
:101A5000040C42781E4002FA0CF21C4B1643320171
:101A6000CA54007800F01F018C40400905EB80004B
:101A7000C0F8004170BD01F01F008440480905EB2B
:101A80008000C0F8804170BD114A114001430E48EA
:101A9000001F016070470C4A121D0029116801D017
:101AA000014300E08143116070474FF0E0210428BA
:101AB000086903D020F004000861704740F004007A
:101AC000FAE700000000FA050CED00E000E400E099
:101AD00080FFFF1F704910B5884206D101210846DA
:101AE00000F041FA002101204FE06C49884206D104
:101AF0000121022000F037FA0021022045E0684968
:101B0000884206D10121042000F02DFA0021042092
:101B10003BE06449884206D10121082000F023FA05
:101B20000021082031E06049884206D101211020BF
:101B300000F019FA0021102027E05C49884206D104
:101B40000121202000F00FFA002120201DE058493B
:101B5000884206D10121402000F005FA00214020F2
:101B600013E05449884206D10121802000F0FBF99E
:101B70000021802009E0504988420AD184150121C2
:101B8000204600F0F0F900212046BDE8104000F0AA
:101B9000EAB910BDF0B5002201264FF0030C0C6825
:101BA00006FA02F31C409C422DD1056853000CFA42
:101BB00003F4A54305600D7907689D403D4305602A
:101BC0000D79012D01D0022D12D18568A5438560C4
:101BD0004C7985689C402C438460446806FA02F581
:101BE000AC43446044688D799540ADB22C43446069
:101BF000C46855000CFA05F7BC43C460CC799C401E
:101C0000C3681C43C460521C102AC8D3F0BD4FF6F1
:101C1000FF7101600021017141718171C1717047D3
:101C200041F48032C261C161C261C169C06970475B
:101C30000246002012690A4200D001207047006964
:101C400080B270470246002052690A4200D001204B
:101C50007047406980B27047018370474183704785
:101C60000AB10183704741837047416170474269FF
:101C70004A40426170474B07DB0E9A40C90810B5D5
:101C800000EB8100016A0F249C40A1430162016ABC
:101C90001143016210BD0000000002400004024038
:101CA00000080240000C02400010024000140240F4
:101CB00000180240001C024000200240EB4801686E
:101CC00041F001010160E94A002108321160026817
:101CD000E74B1A400260031DE64A1A60026822F4CC
:101CE00080220260E1480C3001607047DF49002229
:101CF000891C0A70087070470246002051090129AA
:101D00000CD002290CD0D9497431096802F01F02A5
:101D1000012393400B4200D001207047D349F4E7E0
:101D2000D2497031F1E710B54FF0000C4FF4A064C8
:101D30003120FFF7E1FF0CF1010CA44501D0002890
:101D4000F6D03120FFF7D8FF002800D0012010BDC9
:101D5000C64A116821F0F80141EAC00010607047DE
:101D6000C54908607047C149002270310A700A7085
:101D7000012802D0042801D1052008707047BF490E
:101D80000860704741EA82115A08BD4BDDF800C077
:101D900003EB02421143014341EA0C60B349091DC0
:101DA00008607047B44908667047800140EA0170D6
:101DB000AE49843108607047AF4988667047AE49C4
:101DC000C8647047A94B08331A68084322F0EC62D4
:101DD000104318607047A54B08331A68084322F077
:101DE0007842104318607047A04A0832116821F009
:101DF00003010143116070479C480830006800F0FF
:101E00000C007047994A0832116821F0F001014333
:101E100011607047954A0832116821F4E05101437E
:101E200011607047914A0832116821F4604141EA1B
:101E3000C000106070478D4B30B508331968914C65
:101E400011F00C0104D06510042903D0082903D037
:101E500004601DE005601BE0844A121D1168C1F397
:101E6000805C1168BCF1000F01F03F0102D0B5FBAE
:101E7000F1F101E0B4FBF1F114681268C4F38814C5
:101E80006143C2F30142521C5200B1FBF2F1016006
:101E900019687D4A01F0F0010909545C0168E140CC
:101EA00041601C6804F4E054A40A145D21FA04F4AF
:101EB00084601B6803F460435B0BD25CD140C1605B
:101EC00030BDC0F30121032908D1684B08331968DC
:101ED0006E4A21F4F81102400A431A6063497031D6
:101EE0000A68C0F30B0002430A6070476349443933
:101EF000086070476149403908607047644908606C
:101F000070475A4A30320029116801D0014300E07D
:101F1000814311607047554A34320029116801D05D
:101F2000014300E0814311607047504A3832002974
:101F3000116801D0014300E08143116070474B4AB2
:101F400040320029116801D0014300E08143116053
:101F50007047464A44320029116801D0014300E02D
:101F6000814311607047414A10320029116801D045
:101F7000014300E08143116070473C4A143200295C
:101F8000116801D0014300E0814311607047374A76
:101F900018320029116801D0014300E0814311602B
:101FA0007047324A20320029116801D0014300E015
:101FB0008143116070472D4A24320029116801D0F5
:101FC000014300E0814311607047284A50320029E4
:101FD000116801D0014300E0814311607047234A3A
:101FE00054320029116801D0014300E0814311609F
:101FF00070471E4A58320029116801D0014300E0A1
:10200000814311607047194A60320029116801D07C
:10201000014300E0814311607047144A6432002993
:10202000116801D0014300E08143116070470F4AFD
:102030000D320029117801D0014300E08143117075
:1020400070470A487430016841F080710160704740
:102050000146064A00200C3212680A4200D00120D4
:10206000704702490E310870704700000038024086
:10207000FFFFF6FE1030002400004742800E47426A
:102080000000FFFF0024F4001C000020FFFCFF0FF5
:102090005C014742CA4910B5884206D1012110208F
:1020A000FFF789FF0021102028E0C649884202D1AD
:1020B00001214C0410E0C449884202D101218C0462
:1020C0000AE0C249884202D10121CC0404E0C0499F
:1020D00088420AD101210C052046FFF762FF204605
:1020E000BDE810400021FFF75CBFBA49884209D122
:1020F00001212020FFF75FFF00212020BDE81040D4
:10210000FFF759BF10BD7FB50446008A0D4620F485
:102110004051E88808432082A18941F20C60814344
:10212000A8882A8910436A890A431043A081A08A9B
:1021300020F44071A8890843A0826846FFF77BFE1F
:102140009F48844202D0A348844201D1039800E012
:102150000298A1890904002900EBC00101EB0010DD
:10216000296802DA4FEA410101E04FEA8101B0FB40
:10217000F1F06422B0FBF2F14FEA01114FEA1113C2
:102180006FF018056B4300EB8300A3891D044FF02B
:10219000320306D503EBC000B0FBF2F000F00700FD
:1021A00005E003EB0010B0FBF2F000F00F00084375
:1021B00020817FBD4FF41651016000218180C180D4
:1021C00001810C2242818181704710B5028A4C88BE
:1021D00022F470630A8822438C88C9880C43224306
:1021E0001A43028210BD0021018041808180C1809C
:1021F00070470029818902D041F4005101E021F4A7
:10220000005181817047028B02F47F420283028B6E
:102210000A43028370470029818902D041F40041BA
:1022200001E0C1F30E01818170470029818A02D04B
:1022300041F4006101E021F4006181827047C1F343
:102240000801818070478088C0F308007047028AC7
:1022500022F00F020282028A0A430282704700299A
:10226000818902D041F0020101E021F00201818167
:102270007047828922F40062828182890A438281C6
:102280007047028A22F020020282028A0A430282F6
:1022900070470029018A02D041F4804101E021F415
:1022A000804101827047818941F00101818170473D
:1022B0000029818A02D041F0080101E021F00801E3
:1022C00081827047028BD2B20283028B42EA0121E3
:1022D000018370470029818A02D041F0200101E08A
:1022E00021F02001818270470029818A02D041F0CB
:1022F000100101E021F0100181827047828A22F0F2
:1023000004028282828A0A43828270470029818A7B
:1023100002D041F0020101E021F002018182704708
:10232000002A828A01D00A4300E08A4382827047F1
:10233000C1F3421301F01F0C012101FA0CF1012B32
:1023400007D0022B07D01430002A026805D00A43B8
:1023500004E00C30F8E71030F6E78A43026070477B
:102360000246002012880A4200D001207047C9436B
:102370000180704730B501F01F0C01250024C1F326
:10238000421305FA0CF2012B0FD0022B0FD0838AD7
:102390004FEA11210088134205FA01F500EA050011
:1023A00001D000B10124204630BD8389F0E7038AC3
:1023B000EEE70A0A01219140C943018070470000FD
:1023C000001001400044004000480040004C004024
:1023D0000050004000140140B64910B588420AD1AF
:1023E000841401212046FFF7E6FD2046BDE8104099
:1023F0000021FFF7E0BDB049884202D10121041459
:1024000004E0AE4988420AD10121C4132046FFF7F7
:10241000C8FD2046BDE810400021FFF7C2BD10BD39
:1024200030B502884C8802F441530A88CD88224393
:102430008C882C4322430C8922434C8922438C896B
:102440002243CC8922431A430280828B22F4006209
:102450008283098A018230BD70B502220023858BF8
:1024600001244FF24006354085830284858B8E68B7
:10247000022E35D08A8802B10224914A13681B02C9
:1024800003D5136823F4000313608D4A7C3213686C
:102490001268C3F38813C2F3027C894A121F1268C0
:1024A000884E02F03F02B6FBF2F25A43B2FBFCF256
:1024B000CB88B3F5007F28D06301B2FBF3F202EBC7
:1024C00082028B685200B2FBF3F2521D92B20A23D1
:1024D000B2FBF3F202F00103D21AC2F34F021B0265
:1024E000941EFE2C01D302220023CC881A431443ED
:1024F00004840A884B881A438B8889890B431A43C2
:102500002A4342F40061818370BD120AD7E700219B
:10251000018041808180C180018141818181C181AF
:102520000721018270470021018041808180C180A4
:1025300002228260818170470029018802D041F027
:10254000400101E021F04001018070470029818BAA
:1025500002D041F4806101E021F480618183704701
:10256000028822F40062028002880A4302807047D7
:10257000B1F5804F018803D021F48041018070477C
:1025800041F48041FAE7A1F57E420188FF3A02D08A
:1025900041F4807101E021F48071018070470029CD
:1025A000818802D041F0040101E021F00401818022
:1025B00070470029818802D041F0100101E021F02C
:1025C00010018180704710B5828B00234FF24004C8
:1025D0002240828302220284B0F81CC00A884FF491
:1025E0008074B2F5007F00D002B923464A888C88F7
:1025F0008989224319430A4342EA0C0242F40061EA
:10260000818310BD808970478181704700290188CE
:1026100002D041F4005101E021F4005101807047E3
:10262000018841F4805101807047012901D0008B5D
:102630007047808A7047008A7047002A828801D0DC
:102640000A4300E08A4382807047090901238B40D6
:10265000002A828899B201D00A4300E08A4382802E
:1026600070470246002012890A4200D001207047BC
:10267000C9430181704710B501F00F03012404FA2A
:1026800003F30246002009098C4091889BB21FFA8F
:1026900084FC128901EA0C011A4202D0002900D000
:1026A000012010BD01F00F0201219140C9430181B9
:1026B000704700000030014000380040003C0040FE
:1026C0000838024000127A00514810B5016841F400
:1026D000700101604F48016841F0010101604D4AFD
:1026E00000210832116002684B4B1A400260031D42
:1026F0004A4A1A60026822F48022026045480C307F
:10270000016000F03EF842494FF0006080390860F7
:1027100010BD30B53F4C08342068414B414910F0A2
:102720000C0004D05D10042803D0082803D00B60EF
:102730001DE00D601BE0374A121D1068C0F3805C7D
:102740001068BCF1000F00F03F0002D0B5FBF0F0C4
:1027500001E0B3FBF0F013681268C3F38813584329
:10276000C2F30142521C5200B0FBF2F00860206834
:102770002C4AC0F30310121D105C0A68C2400A60A4
:1027800030BD244A0020116841F4803111604FF4BB
:10279000A063116800F1010011F4003F01D19842DB
:1027A000F7D11068800331D51A484030016841F0F4
:1027B000805101601C48016841F480410160154866
:1027C000083001680160016841F40041016001685E
:1027D00041F4A0510160031F14491960116841F0D0
:1027E0008071116011688901FCD5114A40F20561C0
:1027F0001160016821F003010160016841F00201EC
:1028000001600168C1F381010229FAD1704700001B
:1028100088ED00E000380240FFFFF6FE1030002493
:102820000024F4002C0000200070004008544007F1
:10283000003C0240704700000FB4044910B503AAE1
:10284000029800F059F910BC5DF814FB1800002044
:1028500070B505460C46012A05D02868800600D5CB
:10286000EA69002302E0012305E05B1C934202D2E7
:10287000E05C0028F9D1A869E618C01AA861286AA6
:10288000184428622846AFF3008004E0D5E901210E
:1028900014F8010B9047B442F8D32846AFF30080F8
:1028A00070BD00002DE9F04107460025106875292C
:1028B000394616A411D0AFF30080002803DAC0F126
:1028C000000013A407E039688A0701D511A402E0CB
:1028D000490704D510A4012501E0AFF300800021D1
:1028E0000A2307F1240607E0B0FBF3F203FB120012
:1028F000303070541046491C0028F5D12B46224632
:102900003846BDE8F04100F085B800000000000046
:102910002D0000002B0000002000000070B50446D0
:102920000D4621461068AFF300802168090502D5E5
:10293000104A7A4402E00F4A7A440E32002104F130
:10294000240307E000F00F064FEA1010965D5E5476
:1029500001F101010028F5D103462068000704D5E4
:10296000702D02D009B1113202232046BDE870401B
:1029700000F050B8B70200002DE9F04104460F46C0
:102980000020DFF88480F84420622046E168884710
:1029900090B3252806D0D4E901219047206A401C35
:1029A0002062F2E700252046E16888472028064695
:1029B00008DB312E06D208EB060010F8200C08B117
:1029C0000543F0E7A80701D525F00405A6B1A6F157
:1029D0004100192802D8203645F400653A463146B0
:1029E00020462560FDF70AFC48B1012805D0FF1DEF
:1029F00027F007070837C8E703E03F1DC5E7304663
:102A0000C9E7206ABDE8F0818B020000704770477B
:102A1000704770472DE9F0470D46044692469946A7
:102A200000F124080168880604D5E06921F010014E
:102A3000216000E00120A84202DDA0EB050700E0D4
:102A40000027A16907EB050202EB0900A1EB0000DA
:102A5000A0612068C00602D42046AFF300800026A3
:102A600008E0D4E901211AF806009047206A401CCA
:102A7000761C20624E45F4DB2068C0060AD520464D
:102A8000AFF3008006E0D4E9012130209047206AAE
:102A9000401C2062381EA7F10107F4DC07E0D4E9EE
:102AA000012118F805009047206A401C2062281E6A
:102AB000A5F10105F3DC2046AFF300802068000695
:102AC00002D50220BDE8F0870120FBE710B543697D
:102AD00013B1AFF3008001E0FFF7BAFE012010BD93
:102AE000126800F124010A7000224A700122EDE709
:102AF00011684FF0FF32E9E7074B70B50C467B4495
:102B000000F011F80546204600F020F810B14FF013
:102B1000FF3070BD284670BDCFEBFFFF01694A1C36
:102B200002610878704700B58FB0CDE9013100210E
:102B3000059105497944CDE9031011466846FFF730
:102B40001BFF0FB000BD0000E5FFFFFFC06800F0F5
:102B500080007047754600F029F8AE4605006946CA
:102B6000534620F00700854618B020B5FEF746FF13
:102B7000BDE820404FF000064FF000074FF000087E
:102B80004FF0000B21F00701AC46ACE8C009ACE8FF
:102B9000C009ACE8C009ACE8C0098D4670470446DE
:102BA000AFF300802046FDF743FB0000004870476C
:102BB000040500204FF04070E1EE100A704700005D
:102BC0000056002600560036010056003601035616
:102BD000003401005600240301AEC800FF00002DA0
:102BE00000000000560031050401001900303132A8
:102BF00033343536373839414243444546403058FE
:102C000000303132333435363738396162636465C8
:102C1000664030780004000008000000000000005A
:102C20000200010000100000482C000800000020F5
:102C300040000000C4010008882C0008400000206B
:102C4000280B0000E0010008000000000000000068
:102C50000000000000005600320C000A00000000D6
:102C60000000000000000000010203040102030450
:102C700006070809007A030A0000000000000000AF
:082C8000010203040607080924
:040000050800018965
:00000001FF
